:020000040800F2
:1010000098400020C9110008D1110008D311000830
:10101000D5110008D7110008D91100080000000000
:10102000000000000000000000000000DB110008CC
:10103000DD11000800000000DF110008E1110008C8
:10104000E3110008E3110008E3110008E3110008B0
:10105000E3110008E3110008E3110008E3110008A0
:10106000E3110008E3110008E3110008E311000890
:10107000E3110008E3110008E3110008E311000880
:10108000E3110008E311000839D00008E31100085B
:10109000E3110008E3110008E3110008E311000860
:1010A000E3110008E3110008E3110008E311000850
:1010B000E3110008E3110008EFBD0008E311000888
:1010C000E3110008E3110008E3110008E311000830
:1010D000E3110008E3110008E3110008E311000820
:1010E000E3110008E3110008E311000800F002F822
:1010F00000F05AF80AA090E8000C82448344AAF158
:101100000107DA4501D100F04FF8AFF2090EBAE855
:101110000F0013F0010F18BFFB1A43F0010318472B
:1011200024DC000044DC00000A444FF0000C10F8FE
:10113000013B13F0070408BF10F8014B1D1108BF55
:1011400010F8015B641E05D010F8016B641E01F8F5
:10115000016BF9D113F0080F1EBF10F8014BAD1C45
:101160000C1B09D16D1E58BF01F801CBFAD505E063
:1011700014F8016B01F8016B6D1EF9D59142D6D3BD
:10118000704700000023002400250026103A28BFE5
:1011900078C1FBD8520728BF30C148BF0B607047E9
:1011A0001FB51FBD10B510BD0CF03FFC1146FFF779
:1011B000F7FF0AF006FB0CF05DFC03B4FFF7F2FF4B
:1011C00003BC0CF061FC0000094880470948004757
:1011D000FEE7FEE7FEE7FEE7FEE7FEE7FEE7FEE7E7
:1011E000FEE7FEE704480549054A064B7047000044
:1011F00031140008ED100008983A002098400020B3
:10120000983C0020983C00208348016841F001018F
:1012100001604168814A11404160016821F4102158
:1012200021F080710160016821F480210160416832
:1012300021F4FE0141604FF41F018160704776493F
:101240000A6822F480320A600A6822F480220A6066
:10125000B0F5803F04BF086840F4803006D0B0F598
:10126000802F06BF086840F4A020704708607047D0
:1012700000224109684B012908BF196803D00229DF
:101280000CBF196A596A00F01F00012303FA00F02D
:10129000084218BF01221046704761490860704734
:1012A0005D4B5A68084322F47C1210435860704723
:1012B0005B4908667047584A516821F003010843AA
:1012C00050607047544A516821F0F0010843506063
:1012D0007047514A516821F4E061084350607047FB
:1012E0004D4A516821F4605141EAC0005060704796
:1012F000494A516821F440410843506070474649CB
:10130000002281F8202081F82020012803D0042821
:101310000CBF0520704781F8200070473E4A10B48A
:101320005168404B11F00C0118BF042901D0082965
:1013300001D003601BE05168536801F4701113F091
:10134000006F18BF01F5701153684FF0020C13F4D1
:10135000803F0CEB914103D0536813F4003F03D05E
:10136000314B5943016002E02E4B594301605168F3
:101370000F23DFF8B8C003EA11111CF8011003684D
:1013800023FA01F141605368072404EA13231CF88F
:10139000033021FA03F38360536804EAD3231CF873
:1013A0000330D940C1605268032303EA9232ACF1A2
:1013B00004039A5CB1FBF2F1016110BC7047164A5C
:1013C0000029516914BF084321EA000050617047A9
:1013D000114A0029916914BF084321EA0000906175
:1013E00070470D4A0029D16914BF084321EA000063
:1013F000D0617047084A0029D16814BF084321EA28
:101400000000D0607047044A0029116914BF0843E6
:1014100021EA000010617047001002400000FFF850
:101420000000424200127A0000093D000400002042
:101430000E48016841F00101016041680C4A114009
:101440004160016821F4102121F080710160016880
:1014500021F480210160416821F4FE0141604FF4D4
:101460001F0181600349C0030860704700100240FB
:101470000000FFF808ED00E02DE9F00191F803C04D
:1014800000220CF00F031CF0100F1CBF91F802C0DB
:101490004CEA030391F800C04FF00F071CF0FF0F58
:1014A0004FF0010618BF04681CD00D8806FA02FC34
:1014B00005EA0C05654511D1950007FA05F824EAFF
:1014C000080403FA05F52C43CD78282D08BFC0F891
:1014D00014C003D0482D08BFC0F810C0521C082A01
:1014E000E3D304600A88FF2A87BF44680022BDE86E
:1014F000F001704702F1080C0D8806FA0CFC05EAB1
:101500000C05654511D1950007FA05F824EA080491
:1015100003FA05F52C43CD78282D08BFC0F814C078
:10152000CD78482D08BFC0F810C0521C082AE1D35E
:101530004460BDE8F0017047002A14BF01614161B9
:10154000704770B4DFF86CC010F0004F14BFDCF8C7
:101550001C20DCF80420C0F303444FF4401333EAAA
:1015600000054FEA50534FEA031386B206FA03F31D
:1015700016D010F4801F08BF9A4303D0032505FA44
:1015800004F4A24342F07062002918BF1A4310F01D
:10159000004F14BFCCF81C20CCF8042070BC70475E
:1015A000DCF8044022F0706224F07064CCF804404F
:1015B000EAE70000000001404C4A116801F03801E0
:1015C00008431060704749490A6822F010020A6017
:1015D0000A681043086070474448454941604549DE
:1015E000416070474148016941F0800101617047E5
:1015F0003E490420CA6812F0010F1CBF0120704749
:10160000CA6812F0040F1CBF02207047C96811F0AD
:10161000100F18BF0320704700B50346FFF7E8FF1F
:10162000324912E0CA68042012F0010F18BF0120ED
:101630000AD1CA6812F0040F18BF022004D1CA6888
:1016400012F0100F18BF03205B1E012804D0002BDE
:1016500018BF00BD052000BD002BE3D1FAE730B56F
:10166000254D04462846FFF7D7FF042818BF30BD94
:10167000DFF878C0DCF8100040F00200CCF8100071
:10168000CCF81440DCF8100040F04000CCF810001A
:101690002846FFF7C1FFDCF8101041F6FD7211403B
:1016A000CCF8101030BD30B505460C464FF6FF7033
:1016B000FFF7B2FF042818BF30BDDFF830C0DCF8F8
:1016C000100040F00100CCF810002C804FF6FF70A5
:1016D000FFF7A2FFDCF8102041F6FE711140CCF8B4
:1016E000101030BD0149C860704700000020024062
:1016F00023016745AB89EFCDFFFF0F0010B5A0F1C7
:101700008041B1F596313BD0B0F1804F4DD011F50D
:10171000943140D0B1F5806151D0B1F5806158D09D
:10172000B1F580615FD0B1F5806166D0B1F59031DF
:101730006DD0B1F5C05175D0B1F580617DD0B1F5F6
:1017400080617DD011F59E317BD0B1F5806179D07B
:10175000B1F5806177D0B1F5903175D0B1F5806188
:1017600073D0B1F5806118BF10BD01218804FFF767
:1017700041FEBDE8104000214FF48020FFF73ABE43
:101780000121C802FFF736FEBDE8104000214FF4EA
:101790000060FFF72FBE01210220FFF734FE002179
:1017A000BDE810400220FFF72EBE01210846FFF7DA
:1017B0002AFE0021BDE810400120FFF724BE0121D0
:1017C0000420FFF720FE0021BDE810400420FFF7B1
:1017D0001ABE01210820FFF716FE0021BDE81040C7
:1017E0000820FFF710BE01211020FFF70CFE00219A
:1017F000BDE810401020FFF706BE01212020FFF7B2
:1018000002FE0021BDE810402020FFF7FCBD0121B1
:101810004803FFF7EFFDBDE8104000214FF40050F2
:10182000FFF7E8BD0121C804FFF7E4FDBDE8104063
:1018300000214FF40020FFF7DDBD0121080505E080
:101840000DE017E020E029E033E03DE0FFF7D2FDB6
:10185000BDE8104000214FF48010FFF7CBBD0121FF
:101860004805FFF7C7FDBDE8104000214FF4001008
:10187000FFF7C0BD01214020FFF7C5FD0021BDE8F5
:1018800010404020FFF7BFBD01218020FFF7BBFDC6
:101890000021BDE810408020FFF7B5BD01210802FE
:1018A000FFF7B1FDBDE8104000214FF48070FFF755
:1018B000AABD01210804FFF79DFDBDE810400021ED
:1018C0004FF48030FFF796BD01214804FFF792FDE9
:1018D000BDE8104000214FF40030FFF78BBD10B47D
:1018E0000288DFF8A0C3E84B604518BF984211D0CA
:1018F000B0F1804F1CBFA0F18044B4F5806409D0E2
:10190000A0F18044B4F500641CBFA0F18044B4F59C
:10191000406403D14C8822F070022243A0F180443D
:10192000B4F580541CBFA0F18044B4F5A05403D09A
:10193000CC8822F44072224302808A8882850A88F9
:101940000285604518BF98420DD0A0F18042B2F5E3
:10195000A0321FBFA0F18042B2F5A232A0F18042B6
:10196000B2F5A43201D1097A01860121818210BC2D
:10197000704710B4028C22F001020284028C83882A
:10198000B0F818C00C882CF0730C44EA0C0C0C89CD
:1019900022F0020222434C882243A0F18044B4F595
:1019A00096341CBFA0F18044B4F59A340DD0A0F158
:1019B0008044B4F5A0341FBFA0F18044B4F5A23434
:1019C000A0F18044B4F5A4340DD14C8922F0080272
:1019D00022438C8822F0040222438C8923F4407332
:1019E0002343CC8923438380A0F818C0C98881860B
:1019F000028410BC704730B4028C22F010020284C2
:101A0000028C8388B0F818C00D882CF4E6444FF699
:101A1000FF7C0CEA05252C430D8922F020020CEAFC
:101A200005152A434D880CEA05152A43A0F1804587
:101A3000B5F596351CBFA0F18045B5F59A3516D1A0
:101A40004D8922F080020CEA05152A438D8822F088
:101A500040020CEA05152A438D8923F440630CEA01
:101A600085052B43CD890CEA850C4CEA0303838062
:101A70000483C9880187028430BC704730B4028C6B
:101A800022F480720284028C8388B0F81CC00C8817
:101A90002CF0730C44EA0C040D894FF6FF7C22F401
:101AA00000720CEA05252A434D880CEA05252A43D5
:101AB000A0F18045B5F596351CBFA0F18045B5F580
:101AC0009A3516D14D8922F400620CEA05252A4385
:101AD0008D8822F480620CEA05252A438D8923F43F
:101AE00040530CEA05152B43CD890CEA051C4CEA42
:101AF000030383808483C9888187028430BC704754
:101B000030B4028C22F480520284038C8288B0F8B4
:101B10001CC00D884FF6FF742CF4E64C04EA052532
:101B200045EA0C0C0D8923F4005304EA05352B43D8
:101B30004D8804EA05352B43A0F18045B5F596356F
:101B40001CBFA0F18045B5F59A3505D18D8922F4E9
:101B5000804204EA851422438280A0F81CC0C98810
:101B6000A0F84010038430BC70470A884B88B1F855
:101B700006C01A438B8843EA0C031A430B891A43A5
:101B80004B8989891A431143A0F8441070474FF6D6
:101B9000FF71818000210180C18041800172704706
:101BA0000029018814BF41F0010121F001010180E9
:101BB0007047002A828914BF114322EA0101818102
:101BC0007047028922F0700211430181704701853C
:101BD000828270470029018814BF41F0800121F002
:101BE000800101807047028B22F0080211430183BB
:101BF0007047028B4FF6FF7322F4006203EA012163
:101C0000114301837047828B22F0080211438183C4
:101C10007047828B4FF6FF7322F4006203EA0121C2
:101C20001143818370470423B0F820C08B402CEA15
:101C300003030384038C02FA01F14FF6FF7202EAF8
:101C40008101194301847047828822F070028280EA
:101C50008288114381807047028922F00702028145
:101C60000289114301817047028922F080020281BA
:101C70000289114301817047C94301827047C943FA
:101C800001827047002C01400034014010B5A0F1E2
:101C90008041B1F5923111D0B1F5806119D0B1F523
:101CA000A05118BF10BD0121C803FFF7A3FBBDE879
:101CB000104000214FF40040FFF79CBB0121480277
:101CC000FFF798FBBDE8104000214FF40070FFF7CC
:101CD00091BB01218802FFF78DFBBDE81040002178
:101CE0004FF48060FFF786BB426891F804C022F48D
:101CF000807222F470220B6842EA0C221A4342607E
:101D00008268774B1A40D1E902C343EA0C0391F889
:101D100005C042EA4C021A438260C26A097C22F47E
:101D20007002491EC9B242EA0151C16270470029DE
:101D3000816814BF41F0010121F001018160704709
:101D40000029816814BF41F4807121F480718160A1
:101D50007047002A4268C9B214BF114322EA010148
:101D600041607047816841F0080181607047014619
:101D70000020896811F0080F18BF012070478168A2
:101D800041F004018160704701460020896811F02C
:101D9000040F18BF012070470029816814BF41F467
:101DA000A00121F4A0018160704730B40725092902
:101DB0000CD9C468A1F10A0C0CEB4C0C05FA0CF51B
:101DC000AC4303FA0CF32343C36009E0046901EB5D
:101DD000410C05FA0CF5AC4303FA0CF32343036101
:101DE0004FF01F0C072A0CD2436B521E02EB8202EB
:101DF0000CFA02FC23EA0C0391401943416330BC06
:101E000070470D2A0CD2036BD21F02EB82020CFA30
:101E100002FC23EA0C0391401943016330BC704774
:101E2000C36A0D3A02EB82020CFA02FC23EA0C03AD
:101E300091401943C16230BC7047826822F4E0428D
:101E40001143816070470029816814BF41F400414B
:101E500021F400418160704730B4072509290CD96D
:101E6000C468A1F10A0C0CEB4C0C05FA0CF5AC4360
:101E700003FA0CF32343C36009E0046901EB410C4E
:101E800005FA0CF5AC4303FA0CF323430361836BAF
:101E9000C3F3015CA2EB0C02921C02EB82024FF036
:101EA0001F0C0CFA02FC23EA0C03914019438163D6
:101EB00030BC7047826B491E22F4401242EA015145
:101EC0008163704707490028086814BF40F4000088
:101ED00020F4000008607047C943016070470000AB
:101EE000FDF7F1FF0824014002684FF6FE71114032
:101EF00001600021016041608160C160514A524926
:101F0000904204BF486840F00F0022D04F4A9042F0
:101F100004BF486840F0F0001BD04D4A904204BF17
:101F2000486840F4706014D04A4A904204BF486840
:101F300040F470400DD0484A904204BF486840F4D5
:101F4000702006D0454A904204BF486840F47000B3
:101F500001D148607047424A904204D1486840F03D
:101F60007060486070473F4A111F904204BF086884
:101F700040F00F0014D03C4A904204BF086840F083
:101F8000F0000DD0394A904204BF086840F47060F8
:101F900006D0374A904204BF086840F4704001D12F
:101FA00008607047334A904218BF7047086840F491
:101FB00070200860704710B40268D1F820C08B68A8
:101FC0006FF30E1243EA0C03D1E904C44CEA040C8B
:101FD00043EA0C03D1F818C043EA0C03D1F81CC043
:101FE00043EA0C03D1F824C043EA0C03D1F828C01B
:101FF00043EA0C031A430260CA6842600A688260BE
:102000004968C16010BC70470029016812BF41F0E7
:1020100001014FF6FE72114001607047002210F07E
:10202000805F14BF144908490968014218BF0122A2
:102030001046704710F0805F19BF104908600249D0
:102040004860704708000240000002401C00024047
:102050003000024044000240580002406C00024040
:1020600080000240080402401C0402403004024088
:1020700044040240580402400004024004040240A8
:10208000234940F0FD7040F080600860704710B454
:10209000C27801784FF00F0C01242AB31C4A126851
:1020A00001F1E02102F4E062C2F5E062120AC2F13D
:1020B00004032CFA02F290F801C00CFA03F390F832
:1020C00002C00CEA02021A43120181F800240078CF
:1020D00000F01F0104FA01F14009800000F1E02046
:1020E000C0F8001110BC704701F01F0004FA00F0A6
:1020F0004909890001F1E021C1F8800110BC704755
:1021000021F07F0121F060410843024908607047D7
:102110000CED00E008ED00E030B50446008A85B023
:102120000D464CF6FF710840E98808432082A089DB
:102130004EF6F3110840A9882A8911436A89104391
:102140000843A081A08A4FF6FF410840A9890843AF
:10215000A0826846FFF7E2F8A4F18040B0F59C3019
:102160000CBF03980298A18911F4004F00EBC00145
:1021700001EB0010296814BF49008900B0FBF1F0A1
:10218000234A6FF0180CA2FB0031490909010B0921
:1021900003FB0CF300EB8300A38913F4004F4FF013
:1021A000320314BF03EBC00003EB0010A2FB0020BE
:1021B0004FEA501014BF00F0070000F00F00084372
:1021C000208105B030BD0029818914BF41F4005140
:1021D00021F4005181817047C1F30801818070476B
:1021E0008088C0F3080070470029818A14BF41F03D
:1021F000080121F008018182704702460020128800
:102200000A4218BF01207047C9430180704700008F
:102210001F85EB51044908617047044A116821F099
:10222000E00108431060704700000E42007000405B
:102230008069C0F30210000170470000411E8BB29C
:1022400038BF704731226420401E80B2FCD2511E3C
:102250008AB2F8D2591E8BB2F4D2704710B5FEF78D
:10226000D3FF0120FFF719F80020FFF724F8002022
:10227000FEF7E5FF0020FFF742F84FF46011002061
:10228000FFF70EF80120FFF713F80520FFF7D6FF40
:102290003920FEF7EDFF002836D01020FFF793F924
:1022A0000220FFF789F90020FFF71AF84FF4806049
:1022B000FFF70FF80020FFF705F80220FEF7FBFFFD
:1022C000012140F63D00FFF783F801214802FFF7A6
:1022D0007FF801218802FFF77BF800214FF480404E
:1022E000FFF776F801218804FFF77BF84FF40040F0
:1022F000FEF7FEFF01210846FFF761F80121BDE866
:1023000010400720FFF76DB8F7480168F74A01F45D
:10231000E06111430160BFF3408FFEE72DE9F05FFC
:10232000F34C4FF4E06010272080E7700120DFF8C5
:10233000C4B3A07021465846FFF79EF84FF46040A2
:10234000DFF8B4A3208021465046FFF795F8022518
:10235000A5700121E948FFF7F4F80121C803FFF750
:10236000F0F825800425E5702146E548FFF784F85C
:10237000A4F2664898F8000040F0800088F8000059
:1023800010F0800F18BFFF2006D12780E770D849D2
:102390005846FFF771F8EF2020800026E670D449F8
:1023A0005846FFF769F84FF00309A4F80090E6706B
:1023B000CF495046FFF760F84FF4F8702080E57081
:1023C000CB495046FFF758F84FF480502080E57015
:1023D000C7495046FFF750F808202080E570C449EF
:1023E0005046FFF749F82580E770C1495046FFF78E
:1023F00043F84FF4806020801820E070BC495046BC
:10240000FFF73AF84FF4006020804826E670B8499C
:102410005046FFF731F80121BA48FFF792F8012141
:10242000B948FFF78EF84FF400402080E570B049BE
:102430005846FFF721F84FF400502080E670AC4971
:10244000B248FFF719F84FF440402080E570A849E2
:10245000AE48FFF711F8A4F80090E770A449A84827
:10246000FFF70AF84FF40070208098F8000010F091
:10247000800F14BFE770E6709D495046FEF7FCFFE1
:102480004FF4C050208084F80290E6705846BDE8B2
:10249000F05F9749FEF7F0BF2DE9F0419C4F3846B9
:1024A000FFF72CF99B4E4FF410620025A6F8BA22D4
:1024B000A6F8BC529849A6F8BE52A6F8C0520D80A4
:1024C000202048808A80C000C8800D723846FFF7FF
:1024D00006FA924C4FF060080120A4F8008060805A
:1024E0000420A0802581A5816581E581B6F8BC0224
:1024F000E08021463846FFF73CFA08213846FFF7CE
:1025000072FBB6F8BE02E08021463846FFF773FA48
:1025100008213846FFF76DFBB6F8C002E08021467F
:102520003846FFF7ABFA08213846FFF76CFBA4F8F2
:1025300000804FF40F60E08021463846FFF7E0FA54
:1025400008213846FFF765FB01213846FFF742FBBB
:10255000734946F668000880091D08808814091D23
:10256000088004F1100142100A8082104A804FF462
:1025700040728A802422CA8006F58F72527812F047
:10258000400F14BF0D8108814D818D81654938460A
:10259000FFF7EBFA01213846FFF771FB10213846AF
:1025A000FFF76DFB012210213846FFF702FB0121E6
:1025B0003846FFF761FB01213846FFF7F1FA0022A8
:1025C00011463846FFF72FFB002204213846FFF75B
:1025D0002AFB002208213846FFF725FB52480188D4
:1025E00041F400410180BDE8F0812DE9F0414F4EFA
:1025F0003046FFF783F8484C48200727A080278003
:102600000025E580658021463046FFF768F9012204
:1026100011463046FFF7CDFA01213046FFF7C0FAE8
:10262000DFF80C814046FFF769F84FF6FF76A68089
:102630002780E5802572658021464046FFF74FF9E7
:1026400004214046FFF708FB20214046FFF7FCFA33
:1026500080214046FFF708FB2046FFF798FAA68046
:102660002580E580658021464FF08040FFF737F9EF
:10267000002211464FF08040FFF7A9FA20214806BA
:10268000FFF79FFA07214FF08040FFF7E5FA80211E
:10269000C805FFF7E9FA01218807FFF781FA4FF033
:1026A0008040858401214046FFF77AFA2148058061
:1026B000BDE8F08110B5204C86B02046FFF7E6FA61
:1026C000012200218DF804204FF46022CDE902217F
:1026D00000918DF8051008218DF8101069462046EC
:1026E000FFF702FB06B010BD0CED00E00400FA0598
:1026F0009005002000080140000C0140000230005D
:10270000001401400003180000081A0000100140E6
:10271000002C0140140000205C0C0020660C0020FE
:10272000182C0140760C0020442C01400008004089
:1027300000040040240400400024014010B5FB4C7C
:1027400001212046FFF77FFB01212046FFF7F8FA21
:1027500001224FF490612046FFF7FBFA0121204649
:10276000FFF7E5FA0120FFF7ADFB2046FFF7FAFA85
:102770002046FFF7FCFA0028FAD12046FFF7FFFABF
:102780002046FFF701FB0028FAD100212046FFF781
:1027900003FB2046BDE810400121FFF7C8BA70B521
:1027A00086B0FFF787FFE14C032301220521204675
:1027B000FFF7FBFA0323022204212046FFF7F5FA74
:1027C0000223032219462046FFF7EFFA02230422D0
:1027D00003212046FFF7E9FA0223052200212046C3
:1027E000FFF7E3FA0223062207212046FFF7DDFA6E
:1027F0000223072208212046FFF7D7FA02230822E6
:1028000009212046FFF7D1FA02212046FFF752FBAB
:102810000323012211212046FFF71EFB032302227E
:1028200006212046FFF718FBA1142046FFF705FB01
:1028300001212046FFF707FB01212046FFF780FA20
:1028400001224FF490612046FFF783FA00234FF4F2
:1028500060210122CDE90213B54D8DF804200093CB
:102860008DF805308DF8102069462846FFF73CFAB0
:102870000122062311462846FFF797FA022128462F
:10288000FFF718FB0323012205212846FFF7E4FA8E
:102890000323022205212846FFF7DEFAA114284669
:1028A000FFF7CBFA01212846FFF7CDFA0121204698
:1028B000FFF73DFA0120FFF705FB2046FFF752FA2C
:1028C0002046FFF754FA0028FAD12046FFF757FABE
:1028D00026463046FFF758FA0028FAD101212C4647
:1028E0002846FFF724FA2046FFF73CFA2046FFF778
:1028F0003EFA0028FAD12046FFF741FA2046FFF7BA
:1029000043FA0028FAD101213046FFF745FA0220A8
:10291000FFF784FB0028FAD00220FFF78BFB012190
:102920002046FFF739FA06B070BD10B5FFF7C2FEBA
:102930007E4C0323012206212046FFF736FA0323AB
:10294000022206212046FFF730FA03231A46062109
:102950002046FFF72AFA0323042206212046FFF728
:1029600024FA0323052206212046FFF71EFA062239
:10297000032311462046FFF718FA032307220621F6
:102980002046FFF712FA0323082206212046FFF70C
:102990000CFABDE81040D1E610B5FFF78BFE634C92
:1029A0000323012205212046FFF7FFF9032302221A
:1029B00005212046FFF7F9F903231A460521204691
:1029C000FFF7F3F90323042205212046FFF7EDF971
:1029D0000522032311462046FFF7E7F903230622C9
:1029E00005212046FFF7E1F90323072205212046B0
:1029F000FFF7DBF90323082205212046FFF7D5F96D
:102A0000BDE810409AE610B5FFF754FE474C03238B
:102A1000012205212046FFF7C8F9032302220421E1
:102A20002046FFF7C2F90223032219462046FFF78A
:102A3000BCF90223042203212046FFF7B6F906233E
:102A4000052210212046FFF7B0F9032306220721B3
:102A50002046FFF7AAF90323072208212046FFF7A3
:102A6000A4F90323082209212046FFF79EF9BDE8B7
:102A7000104063E610B52F4C8CB02046FFF734FAB7
:102A80002D4800902D480021CDE901010822CDE913
:102A90000321802205925200069292002020CDE967
:102AA00007200002CDE9090169462046FFF783FAB5
:102AB0000CB010BD01B400984000009004BF01B0FC
:102AC0007047401E0090FCD101B070471C48B0F91F
:102AD0001A13B0F950229142C4BFB0F85012A0F8B6
:102AE0001A13B0F9DC11B0F950229142C4BFB0F80A
:102AF0005012A0F8DC11B0F91A134229A4BFB0F8A3
:102B00001A1332390FDAB0F91A131029C4BFB0F80A
:102B10001A13103907DCB0F91A130429C6BFB0F82C
:102B20001A13091F0021A0F81A137047002401404E
:102B300000280140080002404C240140840C002081
:102B400014000020F8494FF480500880F7480188AD
:102B500041F020010180F648017841F01001017038
:102B60007047F448016841F400510160016841F484
:102B700080410160016841F4004101607047EE4806
:102B8000016821F480710160016821F40071016025
:102B9000016821F480610160E648016821F4005178
:102BA0000160016821F480410160016821F4004165
:102BB00001607047E1497944B0F5E16F0DDDA0F5A2
:102BC000E16000B2B0F5617FC4BFC0F5E16000B262
:102BD00031F81000404200B27047B0F5617FC4BFC9
:102BE000C0F5E16000B231F910007047B0F5E16F57
:102BF000A4BFC0F5616000B2D1497944B0F5617FEE
:102C000007DDA0F5617000B231F81000404200B25B
:102C10007047C0F5617000B231F910007047F8B527
:102C2000C8480088C84CA4F8A202B4F87C03B4F8E1
:102C30006C130025401A00B2A4F8EA00411E0120DE
:102C4000042934BFA070A570B4F8A202B4F87C13B4
:102C5000401A00B2A4F8EA00401E042802D2A0786C
:102C6000012800D0A570B4F8D002A0F5D051B23937
:102C700001BFB4F8FA02A0F5A051B1F5BF71A07878
:102C80000CBF0128F8BDFEF7A7FC3520FEF72AFD92
:102C9000042084F876008DF80050AC4E09E03046F0
:102CA000FEF7DDFC84F876009DF80000401C8DF8EE
:102CB00000009DF80000002804BF94F87600042866
:102CC000EDD00220A070A4F87C53A4F86C53F8BD9A
:102CD000F8B59C4800889C4CA4F8A202B4F87C0388
:102CE000B4F86C130025401A00B2A4F8EA00411EA3
:102CF0000120042934BFA070A570B4F8A202B4F872
:102D00007C13401A00B2A4F8EA00401E042802D244
:102D1000A078012800D0A570B4F8D002A0F5D05159
:102D2000B13901BFB4F8FA02A0F5A851B1F17D01A3
:102D3000A0780CBF0128F8BDFEF74EFC3520FEF749
:102D4000D1FC042084F876008DF80050804E09E014
:102D50003046FEF784FC84F876009DF80000401CA5
:102D60008DF800009DF80000002804BF94F876005C
:102D70000428EDD00320A070A4F87C53A4F86C5371
:102D8000F8BD2DE9F047DFF8C091704C002699F8A6
:102D90000200DFF8C0A14FF00108254609F5806761
:102DA000022809D023E03AF816102846761CFEF7D0
:102DB0007AFC89F87600AD1CD7F84401854203D22D
:102DC00099F876000428EED00020D7F844118C4200
:102DD0000DD2B8F1000F0AD03AF810102288401C2A
:102DE000914208BFA41CF0D00120BDE8F08700206C
:102DF00089F80200A9F8D002A9F8FA02FEF7F2FB5E
:102E00000020BDE8F0872DE9F047DFF83C91504CF9
:102E1000002699F80200DFF840A14FF0010825468E
:102E200009F58067032809D023E03AF816102846F0
:102E3000761CFEF738FC89F87600AD1CD7F84801FF
:102E4000854203D299F876000428EED00020D7F806
:102E500048118C420DD2B8F1000F0AD03AF8101088
:102E60002288401C914208BFA41CF0D00120BDE87C
:102E7000F087002089F80200FEF7B4FB0020BDE8CF
:102E8000F087364B98683649012222EAD03C4878D0
:102E90006CF38610A1F1060C48709CF801C01CF080
:102EA000020F09D022EA901C9B686CF3C71022EA3B
:102EB000933262F3C30006E09B6822EA933262F326
:102EC000C71020F008004870704710B484461E4CAC
:102ED00001FB01F0B0EB0C02C4F8E803C4F8D823FE
:102EE00044BF5242C4F8D8234B00ACEB00021A4452
:102EF000521EC4E9F73244BF5242C4F8E0231844DA
:102F0000A0EB0C00421CC4F8E423D4F8E0C3D4F8CE
:102F1000D833481C634502DD944523DD01E093422C
:102F200020DD10BC80B27047202C0140142C0140E1
:102F3000260100200C0C01400C0801402CAF0000C1
:102F4000E8AE0000240400401400002000FC00084B
:102F500000F800089424002094280020001001406C
:102F60003001002010BC08467047FE497944B0F596
:102F7000803F44D3B0F1807F26D3B0F1805F17D378
:102F8000B0F1804F34BF01EB905101EB1061097833
:102F900034BFC9010902B0FBF1F21144491CC1F36D
:102FA0004F01B0FBF1F21144491CC1F34F018CE712
:102FB000B0F1806F2CBF01EB105101EB904109780B
:102FC0002CBF89014901E6E7B0F5801F0BD3B0F5AE
:102FD000800F34BF01EB903101EB1041097834BF11
:102FE000C9000901DDE7B0F5802F2CBF01EB1031DE
:102FF00001EB902109782CBF89004900D1E7B0F599
:10300000807F19D3B0F5805F0AD3B0F5804F34BF0D
:1030100001EB901101EB1021097838BF490854E702
:10302000B0F5806F2CBF01EB101101EB9001097816
:103030002CBF8908C908F2E7095C090945E72DE9B1
:10304000F04FC94A91B000209071A2F82401A2F873
:1030500026011072D071507502F580639861186274
:10306000A2F83A01A2F83801A2F846011077A2F8B6
:103070005401A2F85A01D07782F82000A2F8640126
:10308000A2F86601A2F86E01A2F87201A2F874011A
:1030900082F82200012182F82310A2F88401A2F80C
:1030A000860182F82700A2F88A0182F8280082F8B7
:1030B0002900907782F82A0082F82B0082F82C00F1
:1030C000A2F85C01A2F86001A2F85E0182F82D006E
:1030D000A2F88C01A2F88E0182F82E00A2F89001CD
:1030E000A2F89201A2F89401A2F8980182F83000A7
:1030F00082F83100A2F89A0182F83200A2F89C010D
:1031000082F8340082F8350082F8360082F8370001
:1031100082F83D00A2F8A201A2F8A401A2F8A80139
:10312000A2F8AA015864A2F8AC01A2F8AE01A2F874
:10313000B0019864D86482F83E00D86582F83F00F8
:10314000A2F8B40182F8400082F8410082F84200FF
:1031500082F84300A2F8B601A2F8B80182F8440050
:10316000A2F8BA011866586682F8450082F846004F
:1031700082F84700A2F8C60182F8490082F84A00A6
:10318000A2F8CA01A2F8CC0182F84B0082F84E00E6
:1031900082F84F0082F8500082F85100A2F8D00166
:1031A000A2F8D201A2F8D401A2F8D601A2F8DC015B
:1031B00082F85300A2F8E2015074186758679867C4
:1031C00082F8570082F85F0082F8600082F86100A0
:1031D00082F86200A2F82802C3F88400C3F88800CD
:1031E000C3F88C0082F8670082F86A00A2F84602F1
:1031F000C3F8A400C3F8A800C3F8AC00C3F8B0003B
:10320000C3F8B400C3F8B800C3F8BC00C3F8C000EA
:10321000A2F84A02A2F8500282F86E00C3F8C40075
:10322000C3F8C800C3F8D000C3F8D80082F8700013
:10323000A2F86002A2F87602A2F8620282F8710097
:1032400082F8720082F87300C3F8F000C3F8F4004B
:10325000C3F8F800A2F8720282F880004FF46141CE
:1032600099624FF4806159620A21A2F83C11A2F8D8
:103270003E1142F21071A2F848116FF07F414FF4F5
:10328000006E9965A2F8C0E1A2F8C2E1012182F8BE
:103290004C100C02A2F8DE414FF4C861A2F80E12E5
:1032A000A2F81012A101A2F81212C3F8FC102021FA
:1032B00082F87E10042182F87D104FF0280C82F8ED
:1032C0007FC04FF47A7CC3F80441A2F88AC2C3F8E5
:1032D0000801C3F80C01A2F88C02A2F88E02A2F831
:1032E0009002A2F89202A2F89602A2F89A02A2F81C
:1032F0009802A2F89C02A2F89E0282F8840082F84A
:103300008500C3F81001C3F81401C3F81801C3F80D
:103310001C01C3F82001C3F82401C3F8280182F876
:103320008800A2F8A202A2F8A402C3F83001A2F811
:10333000A602A2F8A802C3F83401C3F8380182F843
:103340008900C3F83C01A2F8AA02A2F8AE02A2F8D2
:10335000AC02A2F8B002A2F81003A2F80E03A2F881
:10336000C80203E09EBB000014000020A2F8CE02B9
:10337000C3F88001C3F88401A2F8D002A2F8DC02ED
:10338000A2F8DE02A2F8E002A2F8EC02A2F8EE0235
:10339000C3F88C01C3F89001A2F8F202A2F8F4027B
:1033A000A2F8F60282F8920082F89300A2F8FA02DC
:1033B00082F88300A2F8FE02A2F80003A2F812032A
:1033C000A2F81403A2F81803A2F81A0382F89900CD
:1033D00082F89B0082F89C00C3F8BC01A2F82A0383
:1033E000A2F82C03DFF8FCC3C3F844C1FE4EC3F8B7
:1033F00048614FF4807CA2F802C34FF4804CC3F8BC
:1034000098C140F6980CA2F806C3A2F808C34FF082
:10341000190CA2F82EC34FF4167CA2F852C3C3F8BD
:10342000C001A2F83203C3F8C401C3F8C801C3F84D
:10343000CC01C3F8D001A2F8340382F8A40082F8CA
:10344000A50082F8A60082F8A70082F8A800C3F8B9
:10345000E001C3F8E401A2F84803A2F84A03A2F885
:103460004C0382F8AA0082F8AB00A2F8580382F855
:10347000B30082F8B400A2F86C03A2F87003A2F8BB
:103480007203C3F8F001A2F87C03C3F8F40182F8D8
:10349000C40082F8C50082F8C60082F8C90082F82C
:1034A000CA0082F8CC0082F8CD0082F8CE00A2F8E3
:1034B0008403C3F80802A2F8860382F8D600A2F8B3
:1034C0008A03C3F80C02A2F8960382F8CB0082F8B4
:1034D000D800A2F86402A2F86602A2F8680202F517
:1034E000837C82F887009CF801C002F583752CF07C
:1034F000300C85F801C002F58D7C02F585779CF8CB
:10350000005082F85800A2F888033F7802F58578C9
:1035100027F0010788F80070C3F8580125F020054E
:10352000C3F8CC009076642082F8AC00032082F8C7
:10353000B900102082F8CF00012082F82100A2F803
:1035400098034FF49060A2F8EC01012082F8A300E8
:1035500002F5877002F58777007840F080003870B8
:1035600042F21070C3F82C0102F58D7045F0800313
:10357000037014380125007882F8595082F85E50A3
:103580004CF25035A2F846534FF6FA75A2F8B252F3
:1035900002F5837240F00300107002F11400934DA5
:1035A000407820F0080702F11400A0F58D794770EB
:1035B0002868C0F3821089F877002A68C2F3821263
:1035C00089F87A208242F3D189F8AE00DFF820C270
:1035D000002289F87B2027F0F400A9F8A02240F00F
:1035E0000200ACF106088CF8010098F8000020F009
:1035F000400788F8007089F8B72089F8B820A9F842
:10360000B42289F8D12089F8D22089F8D32008F58E
:103610003B7589F8D4204FF47060E86323F04000D4
:103620008CF800000D90C5F8882198F80100A5F2EB
:10363000EE2320F0100088F801000A90587840F03E
:103640000C0058700123099089F89E30A9F8F042C7
:1036500089F89A30DFF89CC1501EACF800009846FB
:1036600000200CF5C05C04E036F802AB2CF810A08A
:10367000401CD5F844A1564502D2B8F1000FF3D151
:103680004FF0010A4FF000085B485C4E05E030F84F
:1036900002BB26F818B008F10108D5F848B1584522
:1036A00002D2BAF1000FF2D1DFF8548198F801008C
:1036B00020F0040088F801000C9089F88E20A9F809
:1036C000CC22DFF84081002028F81020401C0C2874
:1036D000FADB4D48D0F800A0DFF83081C244CDF8C5
:1036E00008A0DAF800A0CDF800A0D0F804A0C8F136
:1036F000000BDA44CDF808A0DAF800A0CDF804A059
:103700008068404402900068DFF80481029027F04E
:10371000080088F800001090A9F8C22200203CF8A8
:103720001070B9F8C2824744A9F8C272401CB0F5C3
:10373000FF7FF4DD3CF81000B9F8C272B84218BF40
:1037400089F8D83089F85620BCF80200B0F5857F9A
:1037500003D8BCF80200F62801D2ACF80240BCF84D
:103760000400B0F5857F03D8BCF80400F62801D228
:10377000ACF80440BCF802004FF434277843000C46
:10378000A9F86003BCF804704FF434207843000CAF
:10379000A9F8620340F29A30A9F864034FF4647008
:1037A000A9F86603401FA9F8680340F27730A9F82A
:1037B0006A03BCF87801B0F5B46F9CBFBCF878011F
:1037C000B0F5347F05D27820A9F868036420A9F801
:1037D0006A03BCF8087040F20320B7F5167F1DD8C5
:1037E00018E000000000010800FC0008080C01407F
:1037F0002E010020940C002000F8000894280020DE
:103800002A010020A02D0020C807002075FF3200EB
:1038100028010020BCF80870874201D2ACF80800EB
:10382000BCF80C00B0F57A7F03D2BCF80C00C828B5
:1038300003D240F22530ACF80C00A9F8D2E2FF4FD9
:103840004FF40060A7F8D402A7F8D60247F629087B
:10385000C5F8348040F61830CDF82C80ACF84A001A
:10386000F74F40F67870A7F84C004FF4347EA7F875
:1038700078E10320A7F874012020A7F876014046DC
:10388000A7F87A010220A7F80E01EC4880F8A920D9
:10389000B6F8FE734FF6FF7AA7F5AA4B00F2547004
:1038A000BBF1FF0B04BF89F8D83089F8563010D02F
:1038B000B6F8FE73A7F5AA4BBBF1DD0B1CBFB6F83B
:1038C000FE63002E00F0E28199F8D860002E00F02F
:1038D000098242F6E066ACF82C60ACF82EE006886F
:1038E000ACF828604688ACF834608688ACF8306064
:1038F000C688ACF82A600689ACF8C8604689ACF87E
:10390000CA604FF47A66ACF8CC60068AACF82460E2
:10391000468AACF83E60868A0AEA8606ACF83260CF
:10392000868A4AF6AB277E43B60CACF83860C68A66
:103930000AEA8606ACF85A60068B0AEA4606ACF834
:103940004E60468B0AEA4606ACF85060868BACF8AF
:103950002060C68BACF82260068CACF81860468CF0
:10396000ACF8BA60868CACF85C60C68CACF8DA60F7
:10397000068DACF84060468DACF84260868DACF8A0
:103980004460C68DACF84660068EACF80461468E85
:10399000ACF8DC60868EACF85E60C68EACF8486031
:1039A000ACF8FA100627ACF8FC70AA26ACF8FE605A
:1039B000ACF816200A26ACF81060ACF81240D426F9
:1039C000ACF81E6040F24916ACF83660ACF86010F6
:1039D000ACF86210ACF864704FF46076ACF81A6022
:1039E00040F2E246ACF81C602026ACF8626140264A
:1039F000ACF86461ACF866616026ACF86861ACF85C
:103A000006211626ACF80C61ACF87C21ACF8B0218C
:103A1000BCF8FA603C2E03D8BCF8FA60022E01D242
:103A2000ACF8FA10BCF8FC60502E03D8BCF8FC606F
:103A3000042E02D20626ACF8FC60BCF80061A9F89E
:103A40003A6336B22836832E24BF1926A9F83A6382
:103A5000BCF86261802E03D8BCF86261052E02D2E8
:103A60002026ACF86261BCF86461802E03D8BCF8F3
:103A70006461052E02D24026ACF86461BCF8666130
:103A8000802E03D8BCF86661052E02D24026ACF821
:103A90006661BCF86861802E03D8BCF86861052EA9
:103AA00002D26026ACF86861BCF80661102E88BFAF
:103AB000ACF80621BCF80C61522E84BF1626ACF877
:103AC0000C61BCF8C860C6F30D06ACF8C860BCF861
:103AD000CA60C6F30D06ACF8CA60BCF8CC60C6F389
:103AE0000D06ACF8CC60BCF82A60C6F30D06ACF845
:103AF0002A60BCF8246006F00706ACF82460BCF825
:103B0000DA7040F6B836B74205D3BCF8DA6044F64E
:103B10002067BE4203D942F21076ACF8DA60BCF8F6
:103B20000E6006F03F0689F81D60BCF83860FA2E7A
:103B300006D9868A4AF6AB277E43B60CACF83860C5
:103B4000BCF83860142E3CBF1426ACF83860BCF8C2
:103B5000386089F81460BCF80660B6F5967F04D822
:103B6000BCF80660B6F5807F01D2ACF80640BCF820
:103B70000A60B6F5967F04D8BCF80A60B6F5807F77
:103B800001D2ACF80A40BCF80660A9F8E662BCF8BD
:103B90000A60A9F8E862BCF82860102E03D3BCF8CC
:103BA0002860202E01D9ACF82810264DA9F82C2128
:103BB000C5F8D421C5F8DC21BCF82E50A9F88253F1
:103BC000ADB2B5F5347F88BFA9F882E306D8B5F564
:103BD000B47F3CBF4FF4B475A9F88253BCF82850A9
:103BE000EDB289F8BC50BCF82C60A9F84063B6B2BD
:103BF00047F23057BE4288BF47F2305605D8B6F577
:103C0000AF7F38BF4FF4AF7601D2A9F840634FF4CD
:103C10008066A9F82463FA266E43A9F80A62102D7B
:103C200024BFB508A9F80A52BCF8625189F8AF5010
:103C3000BCF8645189F8B05006E000001400002080
:103C40009424002014040020BCF8665189F8B15077
:103C5000BCF8685189F8B250BCF80651EDB289F849
:103C60006D50102D84BF102589F86D50A9F82622BB
:103C7000BCF80C51EDB289F8C750522D7ED31625F1
:103C800089F8C750802589F8C850BBE089F8D8303A
:103C900089F8563040F6183BACF84AB040F67876D2
:103CA000ACF84C604E27ACF8C2704427ACF8C47036
:103CB000ACF86AB1ACF86C61ACF878E10326ACF80A
:103CC00074612026ACF87661ACF87A810226ACF8F3
:103CD0000E61ACF87C21ACF8B02189F8A930ACF8C1
:103CE0000E20F6E5BCF8C2603F27802E88BFACF8F6
:103CF000C270BCF8C460802E88BFACF8C470BCF839
:103D00003460012E84BF4688ACF83460BCF8307053
:103D100042F6E066B74284BF8688ACF83060BCF8F3
:103D20003E60B6F5FA6F84BF468AACF83E60BCF8D8
:103D3000326041F27077BE4204D9868A0AEA86066A
:103D4000ACF83260BCF85A7042F21076B74204D92F
:103D5000C68A0AEA8606ACF85A60BCF84E60282E7D
:103D600003D8BCF84E60042E04D2068B0AEA46063D
:103D7000ACF84E60BCF850603C2E00E036E003D357
:103D8000BCF850605C2E04D9468B0AEA4606ACF8B3
:103D90005060BCF82060042E84BF868BACF8206095
:103DA000BCF82260042E84BFC68BACF82260BCF83D
:103DB000BA60072E84BF468CACF8BA60BCF85C6071
:103DC000072E84BF868CACF85C60BCF8FE60552E74
:103DD0001FBFBCF8FE60AA2EAA26ACF8FE60BCF895
:103DE0001660012E18BFACF8162011E63C2D10D33A
:103DF0003C3D89F8C750202589F8C85099F8C7502C
:103E0000162D10D3162589F8C750802589F8C8507B
:103E10000EE01E2D23BF1E3D89F8C750402580258A
:103E200089F8C850EAE7032D3CBF032589F8C7503D
:103E30000025FE4E72556D1C082DFBDBFC4E7E44AA
:103E400099F8C750765DF701FA4EC6F80472FA4E3B
:103E50007E44DFF8E883755D99F8C8607543F54ED8
:103E6000C6F8005289F86B20002589F86C50B8F824
:103E700056C108F5036B4FEA0C4ECBF804E0B8F8D6
:103E800058C14FEA0C47CBF80870B8F85AC14FEA4E
:103E90000C46CBF80C60B8F85CC14FEA0C45CBF887
:103EA0001050B8F85EC14FEA0C4CCBF814C0B8F80B
:103EB00060814FEA0848CBF81880DFF884B3F345F7
:103EC000B8BFBEF1005F24DADFF878B3E345BCBFCA
:103ED000DFF874B3DC451CDAB5F1C04FC4BFDFF8BE
:103EE0006CC3AC4515DDDFF868C3C445B8BFB8F195
:103EF000204F0EDADFF85CC3BC45BCBFDFF858C307
:103F0000674506DAB6F1604FC4BFDFF850C3B44569
:103F100029DCDFF84CC3D34D8CF80A30DFF848C3F6
:103F2000CCF80450AD05CCF81450D04DCCF810505E
:103F30006D42CCF818506D05CCF80850CC4DCCF83B
:103F40000C500CF1200CCB4DCCF81450CA4DCCF8D1
:103F50001050ED05CCF81850C84DCCE90125C84DDE
:103F6000CCF80C506CE0DFF8D482B8F842C108F508
:103F7000056B4FEA0C4ECBF804E0B8F844C14FEAA9
:103F80000C47CBF80870B8F846C14FEA0C46CBF89E
:103F90000C60B8F848C14FEA0C45CBF81050B8F89F
:103FA0004AC14FEA0C4CCBF814C0B8F84C814FEA28
:103FB0000848CBF81880C346DFF8A082C645C4BFC6
:103FC000DFF87C82F04525DDBCF1005FC4BFDFF87F
:103FD0007482E0451EDDDFF870C2AC45B8BFB5F1B4
:103FE000C04F17DA994D0BEB050C6D00AC4511D99C
:103FF000B7F1204FC4BFDFF85CC2BC450ADDDFF873
:1040000058C2B445BEBFB6F1604FDFF854C28CF859
:104010000A2015DBDFF86CC2964DCCF81450964D93
:10402000CCF81050ED05CCF81850944DCCE9012592
:10403000934DCCF80C50DFF828C202258CF80A50BA
:10404000DFF840C20CF12005DCF814606E60DCF88B
:1040500010606E61DCF818602E61DCF80860AE61FB
:10406000DCF80C60AE60DCF804C0C5F80CC0A5F547
:104070000765B5F81AC0BCF5806F04D8B5F81AC04A
:10408000BCF5007F03D24FF4607CA5F81AC0B5F8E8
:104090001CC0BCF5806F04D3B5F81CC0BCF5C06F64
:1040A00003D940F2E24CA5F81CC0B5F81AC0A9F833
:1040B000D8C1B5F81CC0A9F8DAC11FFA8CFCACF164
:1040C0000A06B9F8D8C16645DCBF0CF10A0CA9F89C
:1040D000DAC1B5F810C0BCF1140F04D2B5F810C0A5
:1040E000BCF1050F03D24FF00A0CA5F810C0DFF8A1
:1040F0004CC1BCF81050DFF890C10022ACF802525D
:10410000ACF8C8214D4AB2F8FA20C2EB82329200D4
:1041100012B2ACF84422DFF824C1BCF8FCC05A4DFE
:10412000CCEB8C3C4FEA8C0CA5F848C2A2EB820287
:1041300005F580659200C5F84021009ADDF804C0BD
:104140006244DDF808C0DFF8489102EB0C084F4AE2
:104150004FF47A77A2FB08C2D208524202EB8202E5
:1041600008EB420202F1300605F52672167005963C
:104170000696A9FB086C4FEA5C1C6FF018060CFB56
:1041800006FC08EB8C06DFF804C1ACFB066C4FEABA
:10419000DC0C0CF13006B8FBF7FC567007FB1C8CEE
:1041A000039604960CEBCC0606EB4C1C4FEA1C3C29
:1041B0000CF1300C0CF0FF069670079642F2107C62
:1041C0000896B8FBFCF60CFB1686B6FBF7F6303605
:1041D00006F0FF0882F80380019ECDF83C80DFF8EE
:1041E000ACB0ABFB06EB4FEADB0BCBF1000B0BEB00
:1041F0008B0B06EB4B0606F1300B82F804B0019EE8
:10420000A9FB06E94FEA59196FF0180E09FB0EF9E0
:1042100006EB89091D4EA6FB0996F6083036567145
:104220000E96019EB6FBF7F934E00000B62C002094
:10423000759C0000140400207A9C00009424002047
:1042400000AAAA0A0055553500AAAA4A0055557574
:1042500000ABAA8A005655B500ABAACA005655F560
:10426000500C002000555515C42C002000AAAA6A45
:1042700000ABAAEA00AAAA2A0055555500ABAAAA83
:10428000005655D5E42C002014000020CDCCCCCC19
:104290001F85EB5107FB196606EBC60909EB4616AD
:1042A000360B303606F0FF0982F80690019EB6FB09
:1042B000FCFE0CFB1E6CBCFBF7FC0CF1300C0CF094
:1042C000FF0C82F807C0069E08EB0662049E3704C6
:1042D000089E07EB06263244C5F890200E9E0CEB94
:1042E0000B624FEA064C0CEB092C6244C5F8942093
:1042F000DFF80084C5F8D480D5F89020FE4F424402
:1043000002EB070CD5F89420FC4E32440CFB02F271
:10431000C5F89421D5F890C0D5F89490CC44C44405
:10432000B44402FB0CF24FF0410CA5F580680CEB95
:10433000127CC5F8DC2088F8A2C0C2F3036C0CF133
:10434000410C88F89DC0C2F3035C0CF1410C88F865
:1043500098C0C2F3034C0CF1410C88F894C0C2F32E
:10436000033C0CF1410C88F88FC0C2F3032C0CF114
:10437000410C88F88DC0C2F3031C0CF1410C88F885
:1043800086C002F00F02A5F5806C41328CF88120C6
:10439000DFF86C830022A8F5006CC5F898600CEB80
:1043A0004206B6F89061082AF6B208F8026018BF13
:1043B000092A06D0D5F8989006FB09F6B608C5F884
:1043C0009860521C102AEADBDFF838930022A9F526
:1043D000217E08EB020B19F802608BF810600CEBE1
:1043E0004206B6F8B8610EF80260521C042AF0DBEF
:1043F000059AD5F8986006FB0272039E920802FBAC
:104400000672079E920802FB06720F9E920802FB3C
:1044100006729608BC4F320AA7FB02B94FEAD909C7
:104420006FF00C0B09FB0BF902EB49024132C5F8A6
:10443000DC6088F80820320CA7FB0276F60806FB41
:104440000BF6C5F8982002EB4602DFF8C0B2413205
:1044500088F8092000268BF817609EF80020774620
:10446000203A5F2A12D27A78202A0FD37E2A0DD8DA
:10447000BA78202A0AD37E2A08D89EF80320202A58
:1044800004D37E2A98BF8BF8186002D902228BF8D9
:104490001820DFF87C8200220CEB4207B7F8C471C9
:1044A000FFB208F80270303F0A2F28BF08F80260F8
:1044B000521C0E2AF0DBABF86E63BCF8FE20AA2A71
:1044C00004D1944F109A42F060023A708BF8BA60AF
:1044D0008BF8BB608BF81A60BCF84420D2B2C2F3F0
:1044E00081078BF8BD208BF81B70022F84BF022739
:1044F0008BF81B7002F003028BF8BD208BF8136061
:104500008BF81960CBF8D0638BF8BE608BF89160A4
:104510008BF85A6012228BF85D20BCF84820ABF86B
:10452000002212B2242AC4BF2422ABF8002203DCEA
:10453000012AB8BFABF80032EB67BCF81820B2F51F
:10454000616F24BF008CACF818007348734A476849
:10455000D21BC5F8E8214269D5F8E871C2F1804262
:104560003A44C5F8E8216E4A0769D21BD5F8E871CC
:104570003A44C5F8E8216B4A8769D21BD5F8E8713F
:104580003A44C5F8E8218268D5F8E871C2F14042A2
:104590003A44C5F8E821C2686348801AD5F8E82192
:1045A0001044C5F8E801D5F8E801604A82FB002014
:1045B000A0EBE070C5F8E801D5F8E8010014C5F8F3
:1045C000E801D5F8E801C0EB4012C2EB002000136F
:1045D000C5F8E801BCF81820D5F8E8011044C5F882
:1045E000E801D5F8E801B0F5616F05DBD5F8E80121
:1045F000A0F56160C5F8E801D5F8E801002805DA02
:10460000D5F8E80100F56160C5F8E801D5F8E801E2
:10461000B0F5616F03DAD5F8E801002806DAC5F8CD
:10462000E8613C48027842F040020270BCF8BA20CF
:104630000C983F4F62F34100BCF8BA20520862F375
:1046400000007870BCF8BA003A4A87080D9867F302
:104650000000107010F0010F039007D08BF81210BB
:1046600002208BF852008BF8381005E08BF852606E
:104670008BF812608BF83860BCF8C2202E480270AC
:10468000BCF8C4204270BCF83400DFF888E09EF823
:10469000007060F341078EF80070BCF83080BBF802
:1046A0008223584602EB420909EBC20908FB09F8CC
:1046B00041F6501998FBF9F8ABF83482BCF82A801F
:1046C000ABF83682BCF8C880ABF83882BCF8CC8036
:1046D000ABF83A82BCF8CA80ABF80C83BCF82480F3
:1046E00080F86880DDF82880A0F8786180F86F6035
:1046F00024E000003832694C73E7F505D1FF323011
:10470000942C0020AC0600204FECC44E1400002076
:10471000A82C002028010020C42C0020005555158D
:1047200000AAAA6A0056559500ABAAEAABAAAA2A23
:104730002A0100202E010020E003002028F060085C
:104740008EF80180A0F8FC62BCF83E90A0F85C9264
:10475000A0F82E61BCF85490A0F87E931FFA89F05F
:10476000B0F57A7F84BF3120ABF87E03BCF85600E9
:10477000C0B28BF8C200C02888BF8BF8C260B2F507
:10478000876FBBF85C020CBF1E301430ABF85E02C2
:10479000BCF83A00C0B28BF8C000801E7F2824BF4E
:1047A00008208BF8C000BCF83200BCF84A209042C8
:1047B00084BFBCF84A00ACF83200BCF83200ABF859
:1047C0003C02BCF85A00BCF84C20904284BFBCF8B4
:1047D0004C00ACF85A00BCF85A00ABF83E02DFF8C7
:1047E000C4E409980EF1060920F001008EF80100DA
:1047F0009EF8000020F040008EF8000099F800209C
:1048000022F0010289F800200592BCF85C201B2AE6
:1048100088BFACF85C60BCF85C208BF85B20BCF80F
:104820005E20E02A84BF1022ACF85E20BCF85E2037
:10483000002A04BF1022ACF85E20BCF85E20ABF862
:10484000F82112B2D210ABF8FA2108BFABF8FA3156
:104850008BF8AD60ABF85A63C5F89C61ABF8526158
:10486000ABF8506147F23052C5F8A061ABF84A216D
:10487000BCF86020102A02D8BCF860200AB9ACF855
:104880006010BCF86220102A03D8BCF86220022A0B
:1048900001D2ACF86210BCF86420182A03D8BCF826
:1048A0006420032A02D20622ACF86420FE4A92F861
:1048B000009029F0100982F80090ABF87E61BCF8F6
:1048C00060200AEA8202ABF81822BCF862200AEAE9
:1048D0008202ABF81C22BCF864200AEA8202ABF820
:1048E0002022BBF8182202EB82020AEA4202ABF84D
:1048F0001A22BBF81C2202EB82020AEA4202ABF83F
:104900001E22BBF8202202EB82020AEA4202ABF826
:104910002222E44A20F0800010700490BBF81802B4
:10492000ABF81402BBF81A02ABF81602921C28F07E
:104930000800507027F004001070009FBCF8AE8093
:104940004744BCF8AC8007EB0847C5F8E870BCF8F2
:104950004070032F8EBF8BF82560BCF840708BF839
:104960002570BCF84270012F14BF8BF824608BF8BF
:10497000243010F0600F04D08BF824304E22ABF8B6
:104980007A238BF84D608BF85060BCF8462042B11A
:10499000BCF846201F2A9CBFBCF846208BF8262076
:1049A00001D98BF82610BCF80421082A88BF0822F8
:1049B00008D8BCF80421002A0CBF8BF86330BCF87F
:1049C000042101D08BF86320BCF87621202ABCF8A2
:1049D000762128BF202206D2D2B28BF86920152A70
:1049E00038BF152201D28BF869209BF86D20082A68
:1049F00006D2BBF8342240F24D17B2FBF7F206E0C4
:104A0000BBF834724AF2D73807FB0882D20DABF8F4
:104A100080234AF6C872ABF89E210026A34FABF85C
:104A20005E638BF8826064223A8007F15008A8F830
:104A300000603A88BBF83E9202FB09F24FEA521935
:104A4000A7F12802A2F80090B2F80090B7F800A0F1
:104A5000BBF83EE20AFB0EFA09EBAA19A2F8009095
:104A6000B2F80090B7F800A0BBF83EE20AFB0EFADD
:104A700009EB6A29A2F80090B8F900904FF4161AD1
:104A800009FB0AF9B8F900A04FEA29494FF4966EDC
:104A90000AFB0EFA09EBAA19B8F900A00AFB0EFAF4
:104AA00009EB6A2902F1500AAAF80090DFF8009297
:104AB0000B9DA2F52D7AA9F800508BF896608BF823
:104AC00097601588A2F2B466AD09CAF8A45196F8A9
:104AD000D8600125DFF8DC9186B109F28C7232F8DA
:104AE000152027F8152037F815A00CEB4502A2F881
:104AF00018A138F815A0A2F8E0A115E00CEB4502CA
:104B0000B2F818A127F815A0B2F8E02128F815206E
:104B100037F81520642A07D937F8152022B9664AD4
:104B200032F8152027F8152037F81520B9F83EA2DD
:104B300002FB0AF24FEA521A604A22F815A032F834
:104B400015A037F815B0B9F83EE20BFB0EFB0AEBE7
:104B5000AB1A22F815A032F815A037F815B0B9F83D
:104B60003E920BFB09F90AEB692922F8159038F9F6
:104B700015204FF4161902FB09F2DFF8449138F9B9
:104B800015A012144FF4966B0AFB0BFA02EBAA1253
:104B900038F915A00AFB0BFA02EB6A2229F8152056
:104BA0006D1C132D96DBA9F15002958CD5845032E3
:104BB000958CD584019ABCF8B2502A44BCF8B05008
:104BC000A9F5417B02EB0545A9F2047642F6E062C5
:104BD000CBF8E050A6F80A2396F86920A8256A4386
:104BE0005209A6F8CE21B6F83E526A4342F30F228C
:104BF000A6F87C22B6F8D25215442DB2A6F88452FB
:104C0000B6F8D272BF1A0FFA87F9A6F88692B6F8EC
:104C1000D67217440FFA87F8A6F88082B6F8D672D3
:104C200040F6F16ABF1A3FB2A6F882725545C8BF76
:104C3000A6F884A24FF48775B9F5877FB8BFA6F8A8
:104C40008652D045C8BFA6F880A2B7F5877FB8BF07
:104C5000A6F88252B2F5DE6FA4BF40F2EF62A6F86A
:104C60007C2292B25242A6F87E22164D0022A6F86D
:104C700070226F7827F010076F70BCF84E50A6F8BE
:104C80004052B6F84072104D7D432D0CA6F86C5280
:104C9000BCF85050A6F84252B6F84252A6F87853E3
:104CA00014E000002601002030010020F006002062
:104CB000C408002014000020A0070020C80600201F
:104CC000180700202401002000602900B6F8425295
:104CD000FE4F7D432D0CA6F86E5232744FF496753C
:104CE000A6F8885286F87920BCF8205086F8B5508E
:104CF000F74D2A80BCF8225086F8B650BCF8DA503E
:104D0000A6F80453BCF8DC7040F2011535EA070739
:104D100018BFACF8DC50BCF8DC70EE4DDFF8B8938F
:104D20002F802D78C5F3420786F83970C5F34215F8
:104D300086F83A50049D25F0200789F8007086F81F
:104D40008A2086F88B20E54D86F88C207D4496F8E5
:104D5000638015F80850A6F86A52029DBCF8B68028
:104D60004544BCF8B48005EB0848CBF8E48086F8ED
:104D7000C120A6F8C2223625A5F15C08B8F1130FB0
:104D800006D33CF81580B6F8C2A2D044A6F8C28279
:104D90006D1C7C2DF0DBBCF8B850B6F8C2824545DE
:104DA00014BF40F0100020F01000CD4D2870BCF86A
:104DB0000E81B8F1020F1CBFBCF80E81B8F1550F7F
:104DC0003CBF40F010002870BCF8740103281CBFE1
:104DD000BCF87401022808D0BCF87401B0F5807FDB
:104DE00003D8287840F010002870DFF8F882039884
:104DF00040F0040088F80000BCF8B0A1BAF1630FDD
:104E000005D095F800A04AF0100A85F800A0DFF858
:104E1000D8C24FF0630AACF87CA1DFF8D0C2DDF84D
:104E200014A02AF0100A8CF800A086F8BF2047F0E2
:104E3000100C89F800C04FF4FA6CA6F892C3A6F8DB
:104E400094C396F856C0BCF1000F08BF20F00200D2
:104E500007D095F800C040F002004CF0100C85F827
:104E600000C05F4688F80000DFF884B286F875203D
:104E700000254FF080094FF0100A6D20C7F8180286
:104E800042F66960C7F81C0205FB05F0C7F820026E
:104E9000002D04BF0020ABF800007AD0802D07DA87
:104EA000A6F82A42A6F82C924021A6F82E1228E055
:104EB000B5F5807F07DA4021A6F82A12A6F82C1251
:104EC000A6F82E921DE0B5F5007F07DAA6F82AA213
:104ED0002021A6F82C12A6F82E4212E0B5F5806F1C
:104EE00006DA0421A6F82A12A6F82CA2C90106E0C7
:104EF0000121A6F82A120821A6F82C12C901A6F849
:104F00002E12C001B6F82A1200F5382000F5D25052
:104F10004843FEF72AF8C7F81402B6F82C12D7F85F
:104F2000182201FB1200C7F81002B6F82E124843EF
:104F3000B0FBF5F083B20020A6F89A334FF461710C
:104F4000B3F5804F3CBFDFF8ACC1FC4407D23CF95D
:104F500010209A421BD03CF911209A4201D10846F8
:104F600015E00A1A02EBD27200EB620292B23CF92F
:104F700012E09E4502D1104609E00AE0A7BF511E8B
:104F800089B2501C80B28842E1D9084440082BF80D
:104F900015006D1CB5F5C06FFFF66FAF4FF000093F
:104FA000A6F85292A6F832924F4C86F86690A6F870
:104FB0005C93B4F8F200B4F8F4100844B4F8DE10CE
:104FC000B4F8E420002511440844A6F8C40286F889
:104FD00054904FF47A70A6F84C0186F8559098F8E2
:104FE000000020F0080088F80000DFF80C8108F1CC
:104FF000140A98F8000020F0010088F8000086F8F4
:10500000D590FDF73EFF9AF8010010F0080F04D08C
:1050100096F8D500401C86F8D5000120FDF70EF962
:105020006D1C032DEDDB96F8D5000328334801787D
:1050300014BF21F0200141F020010170012086F809
:10504000D5002448407810F0020F0FD101221146FC
:105050002B48FCF771FA2B48017841F040010170B0
:1050600098F8000040F0010088F8000086F8D5901C
:105070000098B4F8AE100844B4F8AC1000EB01404E
:10508000C7F8E8000198B4F8B2100844B4F8B010BA
:1050900000EB0140C7F8E0000298B4F8B6100844ED
:1050A000B4F8B41000EB0140C7F8E400B4F8A00075
:1050B000B4F8A21000EB0140C7F84C01B4F8A4000A
:1050C000B4F8A61000EB01401EE0000000602900CB
:1050D0002001002032010020260100208C9D0000CC
:1050E000280100202E010020942400202C01002003
:1050F000B82D0020988B00001C0100201A01002010
:105100000014014036010020C7F85001B4F8A8008F
:10511000B4F8AA10F84A00EB0140C7F8540110682F
:10512000F64908440090006800900098B4F86E10AA
:10513000B4F86C3000EB03400844B4F88610B4F8BF
:10514000843001EB0341401AC7F85C015168EC4818
:10515000014400910968B4F872301944B4F8703011
:1051600001EB034100910099B4F88830B4F88AC08B
:1051700003FB1C11C7F86011916808440090006897
:10518000B4F876100844B4F8741000EB01400090B5
:105190000098B4F88E100844B4F88C1000EB01406D
:1051A00002F10C01C7F864010868D64A1044009067
:1051B0000068B4F87A201044B4F8782000EB02407C
:1051C0000090B4F89600B4F8942000EB0240009AE6
:1051D000101AC7F868014A68CB4802440092126866
:1051E000B4F87E301A44B4F87C3002EB03420092EB
:1051F000009AB4F892301A44B4F89C30B4F89EC0C7
:1052000003FB0CF3B4F890C003EB0C431A44C7F84B
:10521000702189680844009000680090B4F882000A
:10522000B4F8801000EB01400099081A0090B4F81F
:105230009800B4F89A1000EB01400099081AC7F8DA
:1052400074010098B4F898100844B4F89A1000EB70
:105250000140C7F8780111B0BDE8F08FAB4A117872
:1052600011F0800F08BF7047A94BB3F8C8023C3853
:1052700080B2A3F82402B3F846C3BCF5E15F38BF9F
:10528000704730B50024A3F87242B3F89053DFF8AA
:1052900084C2A84224BFB3F88E53A84208D3B3F8FF
:1052A0008C53A84224BF83F8D24021F0800012D250
:1052B000FDF748FC93F8D2008A283CBF401C83F8D5
:1052C000D20009D39CF8010040F010008CF80100D6
:1052D000107820F080001070B3F89003062821BFEA
:1052E000B3F88E030628B3F88C03062824D2FDF702
:1052F00029FC93F8D1008A283EBF401C83F8D100D6
:1053000030BDB3F8900306283FBFB3F88E030628DC
:10531000B3F88C03062804D37F48017841F01001CC
:1053200001709CF8010040F020008CF8010010781A
:1053300020F08000107030BD83F8D140107820F04C
:105340008000107030BD754910B4487810F0020F1D
:1053500004BF10BC704720F0020048706C4AB2F8DD
:10536000C80240F2495148436D49000B89884843BF
:10537000012303EB2020A2F8FC0202F58060D0F8A4
:10538000A4104909C0F8BC11D0F8BC014FF4467113
:105390004843010C02F58970A2F84612407810F0DB
:1053A000080F06BFB2F85C01081A0020A2F86001DD
:1053B00000B2082809DDDFF85CC19CF8004044F029
:1053C00002048CF8004082F85830A2F85C11B2F95F
:1053D0005E118142B8BFA2F85E0110BC70474F4910
:1053E000087810F0080F08BF70472DE9F00320F08F
:1053F000080008704748DFF818C14FF00004018822
:105400004804400C06BF00228CF8674000200CD0F6
:1054100011F0010F02D0401CC2B204E0401C490848
:10542000C0B21028F4D38CF867203E483E4DA0F55A
:105430008A760778B6F8000196F82C6000F1010131
:105440008BB206F1010117F0100F4FF03209C9B20B
:105450001BD08CF80590322804D2ACF80031BDE89E
:10546000F0037047102E34BF8CF82C108CF82C40B1
:10547000ACF800419CF82C000A2899BF286880F0FD
:105480000400BDE8F003704780E0DFF8A08002B3BD
:10549000BCF88C12002907BFD8F8B0100029BDE86D
:1054A000F0037047B0F57A7F3CBF296821F0040112
:1054B00071D3A0F57A71CE1701EB566626F07F0600
:1054C000891B11F0FF0F04BF296881F0040163D12B
:1054D00061E017F0600F43D0BCF88C22002A04BFB3
:1054E000D8F8B020002A23D0286820F004002860D3
:1054F000BDE8F00370470000D4070020B016D3FECB
:1055000050E92C01B3FF0A004D00F5FF22010020F5
:10551000140000201A010020300100201601002094
:1055200094240020280100200C0C014014040020C9
:105530008CF80590322890D3142E34BF8CF82C10A0
:105540008CF82C40ACF800419CF82C0000281EBFC1
:105550000228401F0A2816D8286840F0040015E0E9
:10556000FE48407810F0800F0DD0D8F8BC01BCF890
:105570006C12884207D9BCF88C02002804BFD8F806
:10558000B0000028E8D0286820F004002860BDE8BA
:10559000F0037047FFE7296040F2E73101EB022199
:1055A000814298BFACF800413FF657AFBDE8F00329
:1055B0007047EB480188C1F30E010180012080F3A0
:1055C00013880420FCF73AFEE64945F2AA50A1F8F8
:1055D000FE03A1F58065B5F8D80000273B2828BF59
:1055E000A5F8D87004D2B5F8D800401CA5F8D800AA
:1055F000DD4E3088DD4CA4F86C0300BF00BF30885E
:10560000A4F87C03FDF764FBFDF7FDFBB4F8D002C2
:10561000D749401CA4F8D002B4F8FA02401CA4F800
:10562000FA020020794405EB40030A5CA3F8E82362
:10563000401C0828F7DB94F8BA001A2804BF0020A1
:10564000CC4907D105EB40030A5CA3F8C421401CF8
:105650000E28F7DBC848007810F0040F08D063204C
:10566000A5F8B001A5F8B201A5F8B401A5F8B601F6
:105670002888401C2880A4F8C272002035F8101039
:10568000B4F8C2221144A4F8C212401CB0F5FF7F46
:10569000F4DDB4F8C21225F810103088A4F86C03B9
:1056A00000BF00BF3088A4F87C03FDF7B8FAFDF70F
:1056B00068FBB2480168B24A01F4E061114301603D
:1056C000BFF3408FFEE7A8480088A849A1F8F4007E
:1056D000B1F8F400B1F8F220801AA1F8F600B1F8A0
:1056E000F400A1F8F200B1F8F600B1F8F020904211
:1056F00084BFB1F8F600A1F8F000A24A107810F0CB
:10570000020F08BF70472DE9F05F20F00200107013
:10571000B1F8EC000024B0F57A7F09D3B1F8F000BD
:10572000C008A1F8EE00A1F8F040A1F8EC4004E0B8
:10573000B1F8EC00401CA1F8EC00B1F88A02B0F519
:105740007A7F3CBF401CA1F88A02487DCB790122B8
:10575000DFF834A24FF00208984201F03981A1F835
:1057600088428A484B7DC05CC87289484B7DC05CCA
:10577000087388484B7DC05C487387484B7DC05C8C
:105780008873C87A172881F01B81DFE810F0F702D0
:105790001700430068008900CA00F7023A0145017A
:1057A000E001F3018E02B6021F0343037D032904C7
:1057B0007304F70478075B086F097F09087B0128E9
:1057C00006D0087B022807D0087B032809D012E006
:1057D000724843885B1C02E0704843885B1E43802C
:1057E00009E0487B8B7B00EB03206C4BC0F38D0002
:1057F000A1F82A01988069484388B3F5857F84BF62
:105800004FF4857343804388F62B3CBFF6234380D7
:1058100000F0E3B9087B012806D0087B022809D0F4
:10582000087B03280ED017E05C48038991F80DC06F
:10583000634405E05948038991F80EC0A3EB0C03BB
:10584000038109E0487B8B7B00EB0320534BC0F3C3
:105850008D00A1F82A011881042000F012BB087BFA
:1058600001280FD0087B022813D0087B0328F3D12E
:10587000487B8B7B00EB03234848838183899B080B
:105880008381E9E74548838991F80DC063448381AA
:10589000E2E74248838991F80EC0A3EB0C03EFE7DF
:1058A000087B01280FD0087B022808BF81F8A3409D
:1058B00001F08680087B6F2804BFB1F88C020028B5
:1058C0000ED001F07DB8B1F88C02002841F078804C
:1058D0003348007810F0100F18BF8A7601F070B8C6
:1058E0003048D0F8B000002804BF887B552841F02C
:1058F0006780487BAA2804D0487BBB280AD001F0E7
:105900005FB8294B187840F06000187081F82420A7
:1059100001F056B8244B187820F06000187001F0A0
:105920004FB8087B012804BF487B5F2841F04880BE
:10593000887B5F2804BF91F88000022841F04080F6
:10594000B1F88A02B0F52F7F81F03A8081F880406B
:105950004FF47A70A1F88A0228E0000024010020A8
:10596000442C01409428002024040040140000200E
:1059700086840000A82C00202E0100200CED00E001
:105980000400FA0516010020AC060020EC070020F8
:10599000FC0700200C0800201C0800209424002094
:1059A000260100201404002028010020B1F88C02F8
:1059B000002841F00580FB48007810F0100F00F03F
:1059C000FF87F948B0F8B801002808BF81F81880AF
:1059D0000DD0087E58B991F8BA001A281EBFB1F848
:1059E0006E03A0F57C53B3F1FF0340F0E98741F665
:1059F000B120A1F8D00241F27D50A1F8FA02FFF7E0
:105A0000D8FD887BA1F8980391F88E00002808BF84
:105A100081F88E2000F0D4BF087B012853D0087B8A
:105A20006428C0F0CD87087B682880F0C987DD48EE
:105A3000007810F0010F00F0C387087B4000C838E1
:105A4000C0B281F8DC004B7B202B02D34B7B7E2B3A
:105A500001D920234B7391F80DC0D44B03F800C03B
:105A60004D7BA3F5006C0CEB4006A6F890518D7BA6
:105A7000202D02D38D7B7E2D01D920258D73401CD6
:105A8000C0B281F8DC008D7B1D548D7B0CEB400097
:105A9000A0F8905181F8A92013200872DFF814C3F0
:105AA000C348CCF898000020DCF898601D5C754372
:105AB000AD08CCF89850401C102813DA082818BFFD
:105AC0000928F8D0F0E7487B0528C0F07987487BA3
:105AD000142880F075874B7BB3480382008AA1F8B5
:105AE00002027AE09AF80050B348DCF89860B34FAD
:105AF00006FB05059AF80160AD0805FB06059AF856
:105B00000260AD0805FB06059AF80360AD0805FBC9
:105B100006008508280AA7FB0096F6086FF00C0916
:105B200006FB09F600EB46004130CCF8DC50187259
:105B3000280CCCF89800A7FB005C4FEADC0C0CFBAF
:105B400009FC00EB4C004130587200F039BF487B33
:105B5000642840F03587087B1C2880F03187087B5B
:105B6000431E9148A0F85C30B0F85C0081F85B00FF
:105B700000F01BBA087B082880F02287DFE800F0DD
:105B8000FE04141E2F395571B1F8E602B0F5957F69
:105B90009CBFB1F8E602401C01D8A1F8E602B1F8BA
:105BA000E602814BD88018E0B1F8E602B0F5807FBC
:105BB00084BFB1F8E602401EF1D9EEE7B1F8E80281
:105BC000B0F5957F9CBFB1F8E802401C01D8A1F860
:105BD000E802B1F8E802744B5881032051E1B1F8B2
:105BE000E802B0F5807F84BFB1F8E802401EF0D92A
:105BF000EDE7487B8B7B00EB0320C0F38D00A1F821
:105C00002A01B0F5807F38BF4FF4807005D3B0F51E
:105C1000967F28BF40F22B1001D3A1F82A0180B251
:105C2000A1F8E602604BD880D7E7487B8B7B00EB7E
:105C30000320C0F38D00A1F82A01B0F5807F38BFA2
:105C40004FF4807005D3B0F5967F28BF40F22B103B
:105C500001D3A1F82A0180B2A1F8E802524B588181
:105C6000BBE7887B552810D0887BFF2818D0487B5D
:105C7000FF3000EB800043004B4803834A48008B11
:105C80004C4BC3F8E80100F0CFBC487B4FF6FF73E4
:105C9000401E00EB800003EA4000434B1883EDE711
:105CA000414B40F6F6101883E8E7087B012804D042
:105CB000087B02281AD000F083BE487B002800F041
:105CC0007F86487B082800F27B864B7B3648A0F80D
:105CD0000431B0F8040181F863003948784491F840
:105CE0006330C05CA1F86A0200F09EBC4B7B2E487A
:105CF000C381487B487700F097BC087B002800F000
:105D00005F86087B122800F25B86487B2D4B91F85A
:105D10000CC0634403F8010C487B002800F0508657
:105D2000487B642800F24C86062008724B7B1E4894
:105D300091F80CC000EB4C00A0F81831487B224BC6
:105D400091F80CC023F81C00087B33F81000B1F860
:105D50003EC20D7B00FB0CF04009A3F1280C2CF88F
:105D60001500087B0CEB400005880E7B33F81660AD
:105D7000B1F83E727E4305EBA61500E079E105809F
:105D8000087B0CEB400005880E7B33F81630B1F829
:105D90003E62734305EB63230380087B122840F0C7
:105DA0000F8660E12601002094240020942C00201E
:105DB000D1FF32301404002073E7F5054FECC44ED8
:105DC000FC8D0000AC080020F0060020087B0028B5
:105DD00000F0F685087B082800F2F285087B431E58
:105DE000FB48A0F8BA30B0F8BAC0FA4D6B786CF343
:105DF0004103B0F8BAC04FEA5C0C6CF300036B705F
:105E0000B0F8BA004FEA900C281D03786CF3000339
:105E100003706FE0487B0528C0F0D285487B80285E
:105E200000F2CE85087B012807D002280ED0032877
:105E300015D004281CD000F0BEBA487B81F8AF0012
:105E4000487BE34BA3F8620100F0B5BA487B81F8C8
:105E5000B000487BDE4BA3F8640100F0ACBA487B8D
:105E600081F8B1004B7BDA48A0F8663100F0A3BAA4
:105E7000487B81F8B200487BD54BA3F8680100F05D
:105E80009ABA087200F09CBD087B001F0C2880F0B5
:105E90009785DFE800F00616263143EE53EEEEEE6E
:105EA000EE96487B002800F08B85487B052800F2A1
:105EB0008785487B431EC6480384008C81F8B50063
:105EC0008CE0487B002800F07B85487B052800F2A9
:105ED0007785487B431EBE484384408C81F8B600DA
:105EE0007CE0487B552840F06B85BB48437843F005
:105EF000100343700F20C4E7487B002800F0608542
:105F0000487B112800F25C85487B431EB048A0F80E
:105F10000631B0F8060181F86D0046E0487B0228A2
:105F2000C0F04E85487B802800F24A85487B81F886
:105F3000C000487BA64B588700F042BD487B002834
:105F400000F03E85487B522800F23A85487BA04B02
:105F5000401EC0B281F8C700A3F80C013C2826D32C
:105F60003C3881F8C700202081F8C80091F8C700AC
:105F7000162805D3162081F8C700802081F8C800B4
:105F8000964B7B4491F8C7001B5C4FEAC31C944BB3
:105F9000C3F804C2DFF84CC2FC441CF800C091F8FE
:105FA000C8000CFB00F0C3F80002072069E71E28B8
:105FB00023BF1E3881F8C7004020802081F8C80028
:105FC000D4E7487B1428C0F0FB84487BFA2800F211
:105FD000F784487B7E4B1887487B08750D2050E777
:105FE000087B002800F0EC84087B122800F2E8848B
:105FF000487B062340B20B727B4B91F80CC023F810
:106000001C00087B33F810C0714D087B05EB400085
:10601000A0F8E0C1087B33F910004FF4161C00FB18
:106020000CF00D7B0014A3F1280C2CF81500087B54
:106030000E7B0CEB4000058833F916604FF4966731
:106040007E4305EBA6150580087B0E7B0CEB40001C
:10605000058833F916307B4305EB63230380087B07
:10606000122840F0AD84BCF82400ACF8260000F003
:10607000A7BCF4E0087B082880F0A284DFE800F0E9
:10608000EF041524333F606E487B00281CBF487B1B
:10609000062880F09584487B401E81F8680091F8BE
:1060A00068004B4B98840E20EBE64B7B887B03EB20
:1060B0000020401EC0F30D00A1F83802B1F83802EC
:1060C000434BA3F8C800EEE7487B8B7B00EB032033
:1060D000401EC0F30D00A1F80C03B1F80C033C4BBB
:1060E000A3F8CA007AE7487B8B7B00EB0323384890
:1060F000A0F8DA30B0F8DA00A1F8040355E7487BDD
:106100008B7B00EB03233248A0F8DC30B0F8DC30A6
:1061100040F2011C3CEA030303D0344B1B88A0F877
:10612000DC30B0F8DC30314803800078C0F3420343
:1061300081F83930C0F3421081F83A000920A0E616
:10614000487B8B7B00EB0320C0F30D00A1F83A02E3
:10615000B1F83A021E4BA3F8CC00A4E7487B8B7B36
:1061600000EB03231A48C382C08A1B4B93F800C07C
:1061700060F3C71C83F800C000F022BC087B232812
:1061800080F01E84DFE800F06B123442566C6B8A9C
:106190006B6B6B6BADB9C3CDF1FAEEEDECEB6B6BEA
:1061A000EAE9E8E7E6E5E4E36BE2E100487B202882
:1061B00000F20684487B102803D2487B042840F074
:1061C000FF83487B024B81F8BC00188500F0F8BBC8
:1061D000942400202A01002028010020317B0000A7
:1061E00014040020327B0000400700203201002010
:1061F000487B8B7B00EB0320401EC0F30D00A1F811
:106200003602B1F83602FE4B588526E0487B8B7B80
:1062100047F2D33C00EB032080B2A0F5AF73A1F8A6
:10622000A403634580F0CC83F54B9885988DA1F845
:10623000400312E0487B8B7B00EB0320401E80B2C2
:10624000A0F58073A1F8A403B3F5E87F00F2B8834A
:10625000EB4BD885D88DA1F88203092011E620E206
:10626000487B8B7B00EB0320401E80B2A0F5FA73C5
:10627000A1F8A403B3F57A6F00F2A283E04B18866D
:10628000B1F88233584300EB400303EBC00041F602
:10629000501390FBF3F0A1F83402DEE7B1F88C0262
:1062A000002840F08D83D748D0F8B000002840F097
:1062B0008783487B012803D0487B022808D00EE062
:1062C000D148037823F002030370CD48848606E0AA
:1062D000CD48037843F002030370C9488286082042
:1062E000CFE54B7B887B03EB0020431EC448C3876C
:1062F000C08FA1F85C020B20C3E5487B431EC04859
:10630000A0F84030B0F8400081F82500CBE6487B8B
:10631000431EBB48A0F84230B0F8420081F8240088
:10632000C1E6487BB64B401EC0B281F8BD00A3F861
:106330004400C0F38103CB76022B88BF81F81B8019
:1063400000F0030081F8BD00ADE68EE183E16DE170
:1063500045E127E110E1F8E092E07CE067E054E0FD
:106360003DE02AE014E009E0FFE74B7BA448A0F8F9
:106370004630B0F8460081F8260094E6487B8B7BD7
:1063800000EB03209E4BA1F8D8015883122078E53A
:10639000487B8B7B00EB032080B2A0F58063A1F8E3
:1063A000DA01B3F5007F9CBF954B988303D99448DD
:1063B000808BA1F8DA01122063E5487B252800F2E2
:1063C000FF82487B012840F2FB82487B431E8C48B9
:1063D000A0F84830B0F84800A1F8000225E0487B5A
:1063E000572884BF57204873487B431E8448A0F831
:1063F0004E30B0F84E00A1F84002B1F84032834868
:106400005843000CA1F86C020FE0487B431E7C4807
:10641000A0F85030B0F85000A1F84202B1F8423272
:106420007A485843000CA1F86E020A2029E5487BFF
:10643000A02800F2C582487B0228C0F0C1824B7BB5
:106440006F48A0F8FA30B0F8FA00C0EB8030800056
:10645000A1F8440212E0487BC82800F2B182487BD0
:106460000428C0F0AD824B7B6548A0F8FC30B0F842
:10647000FC00C0EB80308000A1F848020B2000E552
:10648000887B00F03F008873487B8B7B00EB032008
:10649000431E5B48A0F85A30B0F85A30B0F84CC0F0
:1064A000634584BFB0F84C30A0F85A30B0F85A00B9
:1064B000A1F83E020A200872554B002003F1500952
:1064C00003F1280703F1780B37F810C0B1F83E52FA
:1064D0000CFB05FC4FEA5C1C23F810C033F810C01D
:1064E00037F81050B1F83E6275430CEBA51C23F849
:1064F00010C033F810C037F81050B1F83E62754341
:106500000CEB652C23F810C03BF910C04FF41615A6
:106510000CFB05FC3BF910504FEA2C4C4FF49666EF
:1065200075430CEBA51C3BF9105075430CEB652C27
:1065300029F810C0401C1328C6DB988CD884B9F801
:106540002400A9F8260000F03BBA887B00F03F0049
:106550008873487B8B7B00EB0320431E28484386CF
:10656000438EB0F84AC0634584BFB0F84A304386D2
:10657000408EA1F83C0258E7487B042840F2208274
:10658000487BE02800F21C82487B1D4BA3F85E008C
:10659000487BA1F8F801C010A1F8FA0108BFA1F8E2
:1065A000FA215AE6487B002800F00A82487B10282E
:1065B00000F206824B7B1248A0F86030B0F8600011
:1065C0004FF6FF7303EA8000A1F81802B1F8180231
:1065D00000EB800003EA4000A1F81A0224E0487BA7
:1065E00000285ED0487B10285BD84B7B0448A0F87D
:1065F0006230B0F862004FF6FF7303EA800009E0F2
:1066000094240020140400202801002000602900A8
:10661000C8060020A1F81C02B1F81C0200EB8000A3
:1066200003EA4000A1F81E020C202AE44B7BFE483E
:10663000A0F86430B0F864004FF6FF7303EA8000FE
:10664000A1F82002B1F8200200EB800003EA40002C
:10665000A1F82202E8E7487BC02822D8487BF24B09
:1066600081F8C200A3F85600F7E54B7B887B03EB6B
:106670000020ED4BA1F87E03A3F85400EDE5087B64
:10668000C01F072872D2DFE800F0048686142F5F4F
:106690007200487B012805D0487B092808BF81F893
:1066A00079208DE1E148037843F0010303700A7615
:1066B00086E1DE48037843F002030370087E50B998
:1066C00091F8BA001A281EBFB1F86E03A0F57C53EA
:1066D000B3F1FF0349D14B7BD54803708B7B4370EB
:1066E0000A2081F8BB006BE1D048037843F0020335
:1066F0000370087E50B991F8BA001A281EBFB1F88D
:106700006E03A0F57C53B3F1FF032ED1487BC84B39
:106710009870887BD87091F8BB000A2818BF81F860
:10672000BB4022D10B2081F8BB00BF4893F800C0CA
:10673000A0F8B8C15B78A0F8BA314B7BA0F8BC31A7
:106740008B7BA0F8BE313BE1087E02280DD2B84811
:1067500091F80DC00378634505D140788B7B984252
:1067600008BFCA7501D0CC750C7629E113E0087E0C
:10677000022866D2C87D012863D1AD4891F80DC0CA
:106780008378634505D1C0788B7B984208BF0A7631
:1067900057D00C7614E1087B142821D3087B1B28E2
:1067A0001ED2087B142809D0087B91F8BA305B1CF4
:1067B00098420CBF087B81F8BA4001D181F8BA0039
:1067C0004B7B9C4891F80CC000EB4C0C0CF8283C1F
:1067D0008B7B91F80CC000EB4C0000F8273CEFE0FD
:1067E000087B1E282DD3087B25282AD2087B6FF032
:1067F0003B0303EB4000DFF83CC2C0B281F8DC0091
:106800001CF80030002B1CBF4D7BAB4206D1B1F809
:106810006E5302FA00F32B43A1F86E33401CC0B252
:1068200081F8DC001CF80030002B1CBF91F80EC072
:10683000634506D1B1F86E3302FA00F01843A1F8AF
:106840006E03BDE0087B784BA3F8CE00487BA3F82D
:10685000D000887BA3F8D20003F58060B0F8FEC3B7
:10686000ACF5AA45DD3D1CBFB0F8FE03002824D1DD
:10687000087BA3F86E01487BA3F87001887BA3F81E
:106880007201DFF8B4C1002003EB40061CF8005091
:10689000A6F89051401C0928F6DB002003EB400CC1
:1068A000ACF8B841401C0428F8DB002003EB400C96
:1068B000ACF8C441401C0E28F8DB91F8A900E8B3FD
:1068C000087B4FF47A7CB0FBFCF50CFB150000EB69
:1068D000C00C0CEB4010000B3030A3F8A201087B79
:1068E000DFF858C1ACFB00656D096FF01806754301
:1068F00000EB8500524D85FB00608610A6EBE07032
:106900003030A3F8A401087B4E4EA6FB0097FF0889
:106910007F4207EB870700EB47003030A3F8A60162
:10692000487BACFB00977F096FF0180907FB09F75C
:1069300000EB870085FB0070871000E032E0A7EBDA
:10694000E0703030A3F8A801487BA6FB0097FF0851
:106950007F4207EB870700EB47003030A3F8AA011E
:10696000887BACFB007C4FEA5C1C6FF018070CFBCB
:1069700007FC00EB8C0085FB00C04FEAA00CACEBE1
:10698000E0703030A3F8AC01887BA6FB005C4FEAD6
:10699000DC0CCCF1000C0CEB8C0C00EB4C00303020
:1069A000A3F8AE0191F88000012809D1B1F88A025C
:1069B000B0F52F7F38BF81F8808001D2A1F88A42DC
:1069C000487D0F2808BF4C7502D0487D401C487593
:1069D000B1F82601B1F8243198423CBF8C77BDE86C
:1069E000F09F887F0A283EBF401C8877BDE8F09F53
:1069F000887E012858D0B1F888021026124DB0F5D3
:106A0000967F62D2401CA1F8880291F879000F4667
:106A1000002808BFBDE8F09FAA202870387A687067
:106A2000387A182812E00000942400202601002063
:106A300028040020A82C0020B40600201F85EB515C
:106A400067666666CDCCCCCC6C08002080F00085F3
:106A5000DFE800F06FC4FDFCFBFAF9F8F7F6F5F497
:106A6000F3F2F1F0EFEEEDECEBEAE9E8087B431E20
:106A7000FE48A0F8D4304B7B5B1EA0F8D6308B7B51
:106A80005B1EA0F8D83081F8802097E70B7BF84890
:106A900003704B7B43700B7BF448A0F8C2304B7BF8
:106AA000A0F8C430FFF7FFBAF2480188C1F30E0125
:106AB000018082F31388F0480168F04A01F4E06134
:106AC00011430160BFF3408FFEE791F8780080B179
:106AD000012818BFBDE8F09FB1F87402642839BFDF
