:020000040800F2
:1010000098400020C9110008D1110008D311000830
:10101000D5110008D7110008D91100080000000000
:10102000000000000000000000000000DB110008CC
:10103000DD11000800000000DF110008E1110008C8
:10104000E3110008E3110008E3110008E3110008B0
:10105000E3110008E3110008E3110008E3110008A0
:10106000E3110008E3110008E3110008E311000890
:10107000E3110008E3110008E3110008E311000880
:10108000E3110008E31100088DCF0008E311000808
:10109000E3110008E3110008E3110008E311000860
:1010A000E3110008E3110008E3110008E311000850
:1010B000E3110008E311000885BD0008E3110008F2
:1010C000E3110008E3110008E3110008E311000830
:1010D000E3110008E3110008E3110008E311000820
:1010E000E3110008E3110008E311000800F002F822
:1010F00000F05AF80AA090E8000C82448344AAF158
:101100000107DA4501D100F04FF8AFF2090EBAE855
:101110000F0013F0010F18BFFB1A43F0010318472B
:1011200068DB000088DB00000A444FF0000C10F878
:10113000013B13F0070408BF10F8014B1D1108BF55
:1011400010F8015B641E05D010F8016B641E01F8F5
:10115000016BF9D113F0080F1EBF10F8014BAD1C45
:101160000C1B09D16D1E58BF01F801CBFAD505E063
:1011700014F8016B01F8016B6D1EF9D59142D6D3BD
:10118000704700000023002400250026103A28BFE5
:1011900078C1FBD8520728BF30C148BF0B607047E9
:1011A0001FB51FBD10B510BD0CF0E1FB1146FFF7D8
:1011B000F7FF0AF0A7FA0CF0FFFB03B4FFF7F2FF0A
:1011C00003BC0CF003FC00000948804709480047B5
:1011D000FEE7FEE7FEE7FEE7FEE7FEE7FEE7FEE7E7
:1011E000FEE7FEE704480549054A064B7047000044
:1011F00031140008ED100008983A002098400020B3
:10120000983C0020983C00208348016841F001018F
:1012100001604168814A11404160016821F4102158
:1012200021F080710160016821F480210160416832
:1012300021F4FE0141604FF41F018160704776493F
:101240000A6822F480320A600A6822F480220A6066
:10125000B0F5803F04BF086840F4803006D0B0F598
:10126000802F06BF086840F4A020704708607047D0
:1012700000224109684B012908BF196803D00229DF
:101280000CBF196A596A00F01F00012303FA00F02D
:10129000084218BF01221046704761490860704734
:1012A0005D4B5A68084322F47C1210435860704723
:1012B0005B4908667047584A516821F003010843AA
:1012C00050607047544A516821F0F0010843506063
:1012D0007047514A516821F4E061084350607047FB
:1012E0004D4A516821F4605141EAC0005060704796
:1012F000494A516821F440410843506070474649CB
:10130000002281F8202081F82020012803D0042821
:101310000CBF0520704781F8200070473E4A10B48A
:101320005168404B11F00C0118BF042901D0082965
:1013300001D003601BE05168536801F4701113F091
:10134000006F18BF01F5701153684FF0020C13F4D1
:10135000803F0CEB914103D0536813F4003F03D05E
:10136000314B5943016002E02E4B594301605168F3
:101370000F23DFF8B8C003EA11111CF8011003684D
:1013800023FA01F141605368072404EA13231CF88F
:10139000033021FA03F38360536804EAD3231CF873
:1013A0000330D940C1605268032303EA9232ACF1A2
:1013B00004039A5CB1FBF2F1016110BC7047164A5C
:1013C0000029516914BF084321EA000050617047A9
:1013D000114A0029916914BF084321EA0000906175
:1013E00070470D4A0029D16914BF084321EA000063
:1013F000D0617047084A0029D16814BF084321EA28
:101400000000D0607047044A0029116914BF0843E6
:1014100021EA000010617047001002400000FFF850
:101420000000424200127A0000093D000400002042
:101430000E48016841F00101016041680C4A114009
:101440004160016821F4102121F080710160016880
:1014500021F480210160416821F4FE0141604FF4D4
:101460001F0181600349C0030860704700100240FB
:101470000000FFF808ED00E02DE9F00191F803C04D
:1014800000220CF00F031CF0100F1CBF91F802C0DB
:101490004CEA030391F800C04FF00F071CF0FF0F58
:1014A0004FF0010618BF04681CD00D8806FA02FC34
:1014B00005EA0C05654511D1950007FA05F824EAFF
:1014C000080403FA05F52C43CD78282D08BFC0F891
:1014D00014C003D0482D08BFC0F810C0521C082A01
:1014E000E3D304600A88FF2A87BF44680022BDE86E
:1014F000F001704702F1080C0D8806FA0CFC05EAB1
:101500000C05654511D1950007FA05F824EA080491
:1015100003FA05F52C43CD78282D08BFC0F814C078
:10152000CD78482D08BFC0F810C0521C082AE1D35E
:101530004460BDE8F0017047002A14BF01614161B9
:10154000704770B4DFF86CC010F0004F14BFDCF8C7
:101550001C20DCF80420C0F303444FF4401333EAAA
:1015600000054FEA50534FEA031386B206FA03F31D
:1015700016D010F4801F08BF9A4303D0032505FA44
:1015800004F4A24342F07062002918BF1A4310F01D
:10159000004F14BFCCF81C20CCF8042070BC70475E
:1015A000DCF8044022F0706224F07064CCF804404F
:1015B000EAE70000000001404C4A116801F03801E0
:1015C00008431060704749490A6822F010020A6017
:1015D0000A681043086070474448454941604549DE
:1015E000416070474148016941F0800101617047E5
:1015F0003E490420CA6812F0010F1CBF0120704749
:10160000CA6812F0040F1CBF02207047C96811F0AD
:10161000100F18BF0320704700B50346FFF7E8FF1F
:10162000324912E0CA68042012F0010F18BF0120ED
:101630000AD1CA6812F0040F18BF022004D1CA6888
:1016400012F0100F18BF03205B1E012804D0002BDE
:1016500018BF00BD052000BD002BE3D1FAE730B56F
:10166000254D04462846FFF7D7FF042818BF30BD94
:10167000DFF878C0DCF8100040F00200CCF8100071
:10168000CCF81440DCF8100040F04000CCF810001A
:101690002846FFF7C1FFDCF8101041F6FD7211403B
:1016A000CCF8101030BD30B505460C464FF6FF7033
:1016B000FFF7B2FF042818BF30BDDFF830C0DCF8F8
:1016C000100040F00100CCF810002C804FF6FF70A5
:1016D000FFF7A2FFDCF8102041F6FE711140CCF8B4
:1016E000101030BD0149C860704700000020024062
:1016F00023016745AB89EFCDFFFF0F0010B5A0F1C7
:101700008041B1F596313BD0B0F1804F4DD011F50D
:10171000943140D0B1F5806151D0B1F5806158D09D
:10172000B1F580615FD0B1F5806166D0B1F59031DF
:101730006DD0B1F5C05175D0B1F580617DD0B1F5F6
:1017400080617DD011F59E317BD0B1F5806179D07B
:10175000B1F5806177D0B1F5903175D0B1F5806188
:1017600073D0B1F5806118BF10BD01218804FFF767
:1017700041FEBDE8104000214FF48020FFF73ABE43
:101780000121C802FFF736FEBDE8104000214FF4EA
:101790000060FFF72FBE01210220FFF734FE002179
:1017A000BDE810400220FFF72EBE01210846FFF7DA
:1017B0002AFE0021BDE810400120FFF724BE0121D0
:1017C0000420FFF720FE0021BDE810400420FFF7B1
:1017D0001ABE01210820FFF716FE0021BDE81040C7
:1017E0000820FFF710BE01211020FFF70CFE00219A
:1017F000BDE810401020FFF706BE01212020FFF7B2
:1018000002FE0021BDE810402020FFF7FCBD0121B1
:101810004803FFF7EFFDBDE8104000214FF40050F2
:10182000FFF7E8BD0121C804FFF7E4FDBDE8104063
:1018300000214FF40020FFF7DDBD0121080505E080
:101840000DE017E020E029E033E03DE0FFF7D2FDB6
:10185000BDE8104000214FF48010FFF7CBBD0121FF
:101860004805FFF7C7FDBDE8104000214FF4001008
:10187000FFF7C0BD01214020FFF7C5FD0021BDE8F5
:1018800010404020FFF7BFBD01218020FFF7BBFDC6
:101890000021BDE810408020FFF7B5BD01210802FE
:1018A000FFF7B1FDBDE8104000214FF48070FFF755
:1018B000AABD01210804FFF79DFDBDE810400021ED
:1018C0004FF48030FFF796BD01214804FFF792FDE9
:1018D000BDE8104000214FF40030FFF78BBD10B47D
:1018E0000288DFF8A0C3E84B604518BF984211D0CA
:1018F000B0F1804F1CBFA0F18044B4F5806409D0E2
:10190000A0F18044B4F500641CBFA0F18044B4F59C
:10191000406403D14C8822F070022243A0F180443D
:10192000B4F580541CBFA0F18044B4F5A05403D09A
:10193000CC8822F44072224302808A8882850A88F9
:101940000285604518BF98420DD0A0F18042B2F5E3
:10195000A0321FBFA0F18042B2F5A232A0F18042B6
:10196000B2F5A43201D1097A01860121818210BC2D
:10197000704710B4028C22F001020284028C83882A
:10198000B0F818C00C882CF0730C44EA0C0C0C89CD
:1019900022F0020222434C882243A0F18044B4F595
:1019A00096341CBFA0F18044B4F59A340DD0A0F158
:1019B0008044B4F5A0341FBFA0F18044B4F5A23434
:1019C000A0F18044B4F5A4340DD14C8922F0080272
:1019D00022438C8822F0040222438C8923F4407332
:1019E0002343CC8923438380A0F818C0C98881860B
:1019F000028410BC704730B4028C22F010020284C2
:101A0000028C8388B0F818C00D882CF4E6444FF699
:101A1000FF7C0CEA05252C430D8922F020020CEAFC
:101A200005152A434D880CEA05152A43A0F1804587
:101A3000B5F596351CBFA0F18045B5F59A3516D1A0
:101A40004D8922F080020CEA05152A438D8822F088
:101A500040020CEA05152A438D8923F440630CEA01
:101A600085052B43CD890CEA850C4CEA0303838062
:101A70000483C9880187028430BC704730B4028C6B
:101A800022F480720284028C8388B0F81CC00C8817
:101A90002CF0730C44EA0C040D894FF6FF7C22F401
:101AA00000720CEA05252A434D880CEA05252A43D5
:101AB000A0F18045B5F596351CBFA0F18045B5F580
:101AC0009A3516D14D8922F400620CEA05252A4385
:101AD0008D8822F480620CEA05252A438D8923F43F
:101AE00040530CEA05152B43CD890CEA051C4CEA42
:101AF000030383808483C9888187028430BC704754
:101B000030B4028C22F480520284038C8288B0F8B4
:101B10001CC00D884FF6FF742CF4E64C04EA052532
:101B200045EA0C0C0D8923F4005304EA05352B43D8
:101B30004D8804EA05352B43A0F18045B5F596356F
:101B40001CBFA0F18045B5F59A3505D18D8922F4E9
:101B5000804204EA851422438280A0F81CC0C98810
:101B6000A0F84010038430BC70470A884B88B1F855
:101B700006C01A438B8843EA0C031A430B891A43A5
:101B80004B8989891A431143A0F8441070474FF6D6
:101B9000FF71818000210180C18041800172704706
:101BA0000029018814BF41F0010121F001010180E9
:101BB0007047002A828914BF114322EA0101818102
:101BC0007047028922F0700211430181704701853C
:101BD000828270470029018814BF41F0800121F002
:101BE000800101807047028B22F0080211430183BB
:101BF0007047028B4FF6FF7322F4006203EA012163
:101C0000114301837047828B22F0080211438183C4
:101C10007047828B4FF6FF7322F4006203EA0121C2
:101C20001143818370470423B0F820C08B402CEA15
:101C300003030384038C02FA01F14FF6FF7202EAF8
:101C40008101194301847047828822F070028280EA
:101C50008288114381807047028922F00702028145
:101C60000289114301817047028922F080020281BA
:101C70000289114301817047C94301827047C943FA
:101C800001827047002C01400034014010B5A0F1E2
:101C90008041B1F5923111D0B1F5806119D0B1F523
:101CA000A05118BF10BD0121C803FFF7A3FBBDE879
:101CB000104000214FF40040FFF79CBB0121480277
:101CC000FFF798FBBDE8104000214FF40070FFF7CC
:101CD00091BB01218802FFF78DFBBDE81040002178
:101CE0004FF48060FFF786BB426891F804C022F48D
:101CF000807222F470220B6842EA0C221A4342607E
:101D00008268774B1A40D1E902C343EA0C0391F889
:101D100005C042EA4C021A438260C26A097C22F47E
:101D20007002491EC9B242EA0151C16270470029DE
:101D3000816814BF41F0010121F001018160704709
:101D40000029816814BF41F4807121F480718160A1
:101D50007047002A4268C9B214BF114322EA010148
:101D600041607047816841F0080181607047014619
:101D70000020896811F0080F18BF012070478168A2
:101D800041F004018160704701460020896811F02C
:101D9000040F18BF012070470029816814BF41F467
:101DA000A00121F4A0018160704730B40725092902
:101DB0000CD9C468A1F10A0C0CEB4C0C05FA0CF51B
:101DC000AC4303FA0CF32343C36009E0046901EB5D
:101DD000410C05FA0CF5AC4303FA0CF32343036101
:101DE0004FF01F0C072A0CD2436B521E02EB8202EB
:101DF0000CFA02FC23EA0C0391401943416330BC06
:101E000070470D2A0CD2036BD21F02EB82020CFA30
:101E100002FC23EA0C0391401943016330BC704774
:101E2000C36A0D3A02EB82020CFA02FC23EA0C03AD
:101E300091401943C16230BC7047826822F4E0428D
:101E40001143816070470029816814BF41F400414B
:101E500021F400418160704730B4072509290CD96D
:101E6000C468A1F10A0C0CEB4C0C05FA0CF5AC4360
:101E700003FA0CF32343C36009E0046901EB410C4E
:101E800005FA0CF5AC4303FA0CF323430361836BAF
:101E9000C3F3015CA2EB0C02921C02EB82024FF036
:101EA0001F0C0CFA02FC23EA0C03914019438163D6
:101EB00030BC7047826B491E22F4401242EA015145
:101EC0008163704707490028086814BF40F4000088
:101ED00020F4000008607047C943016070470000AB
:101EE000FDF7F1FF0824014002684FF6FE71114032
:101EF00001600021016041608160C160514A524926
:101F0000904204BF486840F00F0022D04F4A9042F0
:101F100004BF486840F0F0001BD04D4A904204BF17
:101F2000486840F4706014D04A4A904204BF486840
:101F300040F470400DD0484A904204BF486840F4D5
:101F4000702006D0454A904204BF486840F47000B3
:101F500001D148607047424A904204D1486840F03D
:101F60007060486070473F4A111F904204BF086884
:101F700040F00F0014D03C4A904204BF086840F083
:101F8000F0000DD0394A904204BF086840F47060F8
:101F900006D0374A904204BF086840F4704001D12F
:101FA00008607047334A904218BF7047086840F491
:101FB00070200860704710B40268D1F820C08B68A8
:101FC0006FF30E1243EA0C03D1E904C44CEA040C8B
:101FD00043EA0C03D1F818C043EA0C03D1F81CC043
:101FE00043EA0C03D1F824C043EA0C03D1F828C01B
:101FF00043EA0C031A430260CA6842600A688260BE
:102000004968C16010BC70470029016812BF41F0E7
:1020100001014FF6FE72114001607047002210F07E
:10202000805F14BF144908490968014218BF0122A2
:102030001046704710F0805F19BF104908600249D0
:102040004860704708000240000002401C00024047
:102050003000024044000240580002406C00024040
:1020600080000240080402401C0402403004024088
:1020700044040240580402400004024004040240A8
:10208000234940F0FD7040F080600860704710B454
:10209000C27801784FF00F0C01242AB31C4A126851
:1020A00001F1E02102F4E062C2F5E062120AC2F13D
:1020B00004032CFA02F290F801C00CFA03F390F832
:1020C00002C00CEA02021A43120181F800240078CF
:1020D00000F01F0104FA01F14009800000F1E02046
:1020E000C0F8001110BC704701F01F0004FA00F0A6
:1020F0004909890001F1E021C1F8800110BC704755
:1021000021F07F0121F060410843024908607047D7
:102110000CED00E008ED00E030B50446008A85B023
:102120000D464CF6FF710840E98808432082A089DB
:102130004EF6F3110840A9882A8911436A89104391
:102140000843A081A08A4FF6FF410840A9890843AF
:10215000A0826846FFF7E2F8A4F18040B0F59C3019
:102160000CBF03980298A18911F4004F00EBC00145
:1021700001EB0010296814BF49008900B0FBF1F0A1
:10218000234A6FF0180CA2FB0031490909010B0921
:1021900003FB0CF300EB8300A38913F4004F4FF013
:1021A000320314BF03EBC00003EB0010A2FB0020BE
:1021B0004FEA501014BF00F0070000F00F00084372
:1021C000208105B030BD0029818914BF41F4005140
:1021D00021F4005181817047C1F30801818070476B
:1021E0008088C0F3080070470029818A14BF41F03D
:1021F000080121F008018182704702460020128800
:102200000A4218BF01207047C9430180704700008F
:102210001F85EB51044908617047044A116821F099
:10222000E00108431060704700000E42007000405B
:102230008069C0F30210000170470000411E8BB29C
:1022400038BF704731226420401E80B2FCD2511E3C
:102250008AB2F8D2591E8BB2F4D2704710B5FEF78D
:10226000D3FF0120FFF719F80020FFF724F8002022
:10227000FEF7E5FF0020FFF742F84FF46011002061
:10228000FFF70EF80120FFF713F80520FFF7D6FF40
:102290003920FEF7EDFF002836D01020FFF793F924
:1022A0000220FFF789F90020FFF71AF84FF4806049
:1022B000FFF70FF80020FFF705F80220FEF7FBFFFD
:1022C000012140F63D00FFF783F801214802FFF7A6
:1022D0007FF801218802FFF77BF800214FF480404E
:1022E000FFF776F801218804FFF77BF84FF40040F0
:1022F000FEF7FEFF01210846FFF761F80121BDE866
:1023000010400720FFF76DB8F7480168F74A01F45D
:10231000E06111430160BFF3408FFEE72DE9F05FFC
:10232000F34C4FF4E06010272080E7700120DFF8C5
:10233000C4B3A07021465846FFF79EF84FF46040A2
:10234000DFF8B4A3208021465046FFF795F8022518
:10235000A5700121E948FFF7F4F80121C803FFF750
:10236000F0F825800425E5702146E548FFF784F85C
:10237000A4F2664898F8000040F0800088F8000059
:1023800010F0800F18BFFF2006D12780E770D849D2
:102390005846FFF771F8EF2020800026E670D449F8
:1023A0005846FFF769F84FF00309A4F80090E6706B
:1023B000CF495046FFF760F84FF4F8702080E57081
:1023C000CB495046FFF758F84FF480502080E57015
:1023D000C7495046FFF750F808202080E570C449EF
:1023E0005046FFF749F82580E770C1495046FFF78E
:1023F00043F84FF4806020801820E070BC495046BC
:10240000FFF73AF84FF4006020804826E670B8499C
:102410005046FFF731F80121BA48FFF792F8012141
:10242000B948FFF78EF84FF400402080E570B049BE
:102430005846FFF721F84FF400502080E670AC4971
:10244000B248FFF719F84FF440402080E570A849E2
:10245000AE48FFF711F8A4F80090E770A449A84827
:10246000FFF70AF84FF40070208098F8000010F091
:10247000800F14BFE770E6709D495046FEF7FCFFE1
:102480004FF4C050208084F80290E6705846BDE8B2
:10249000F05F9749FEF7F0BF2DE9F0419C4F3846B9
:1024A000FFF72CF99B4E4FF410620025A6F8BA22D4
:1024B000A6F8BC529849A6F8BE52A6F8C0520D80A4
:1024C000202048808A80C000C8800D723846FFF7FF
:1024D00006FA924C4FF060080120A4F8008060805A
:1024E0000420A0802581A5816581E581B6F8BC0224
:1024F000E08021463846FFF73CFA08213846FFF7CE
:1025000072FBB6F8BE02E08021463846FFF773FA48
:1025100008213846FFF76DFBB6F8C002E08021467F
:102520003846FFF7ABFA08213846FFF76CFBA4F8F2
:1025300000804FF40F60E08021463846FFF7E0FA54
:1025400008213846FFF765FB01213846FFF742FBBB
:10255000734946F668000880091D08808814091D23
:10256000088004F1100142100A8082104A804FF462
:1025700040728A802422CA8006F58F72527812F047
:10258000400F14BF0D8108814D818D81654938460A
:10259000FFF7EBFA01213846FFF771FB10213846AF
:1025A000FFF76DFB012210213846FFF702FB0121E6
:1025B0003846FFF761FB01213846FFF7F1FA0022A8
:1025C00011463846FFF72FFB002204213846FFF75B
:1025D0002AFB002208213846FFF725FB52480188D4
:1025E00041F400410180BDE8F0812DE9F0414F4EFA
:1025F0003046FFF783F8484C48200727A080278003
:102600000025E580658021463046FFF768F9012204
:1026100011463046FFF7CDFA01213046FFF7C0FAE8
:10262000DFF80C814046FFF769F84FF6FF76A68089
:102630002780E5802572658021464046FFF74FF9E7
:1026400004214046FFF708FB20214046FFF7FCFA33
:1026500080214046FFF708FB2046FFF798FAA68046
:102660002580E580658021464FF08040FFF737F9EF
:10267000002211464FF08040FFF7A9FA20214806BA
:10268000FFF79FFA07214FF08040FFF7E5FA80211E
:10269000C805FFF7E9FA01218807FFF781FA4FF033
:1026A0008040858401214046FFF77AFA2148058061
:1026B000BDE8F08110B5204C86B02046FFF7E6FA61
:1026C000012200218DF804204FF46022CDE902217F
:1026D00000918DF8051008218DF8101069462046EC
:1026E000FFF702FB06B010BD0CED00E00400FA0598
:1026F0009005002000080140000C0140000230005D
:10270000001401400003180000081A0000100140E6
:10271000002C0140140000205C0C0020660C0020FE
:10272000182C0140760C0020442C01400008004089
:1027300000040040240400400024014010B5FB4C7C
:1027400001212046FFF77FFB01212046FFF7F8FA21
:1027500001224FF490612046FFF7FBFA0121204649
:10276000FFF7E5FA0120FFF7ADFB2046FFF7FAFA85
:102770002046FFF7FCFA0028FAD12046FFF7FFFABF
:102780002046FFF701FB0028FAD100212046FFF781
:1027900003FB2046BDE810400121FFF7C8BA70B521
:1027A00086B0FFF787FFE14C032301220521204675
:1027B000FFF7FBFA0323022204212046FFF7F5FA74
:1027C0000223032219462046FFF7EFFA02230422D0
:1027D00003212046FFF7E9FA0223052200212046C3
:1027E000FFF7E3FA0223062207212046FFF7DDFA6E
:1027F0000223072208212046FFF7D7FA02230822E6
:1028000009212046FFF7D1FA02212046FFF752FBAB
:102810000323012211212046FFF71EFB032302227E
:1028200006212046FFF718FBA1142046FFF705FB01
:1028300001212046FFF707FB01212046FFF780FA20
:1028400001224FF490612046FFF783FA00234FF4F2
:1028500060210122CDE90213B54D8DF804200093CB
:102860008DF805308DF8102069462846FFF73CFAB0
:102870000122062311462846FFF797FA022128462F
:10288000FFF718FB0323012205212846FFF7E4FA8E
:102890000323022205212846FFF7DEFAA114284669
:1028A000FFF7CBFA01212846FFF7CDFA0121204698
:1028B000FFF73DFA0120FFF705FB2046FFF752FA2C
:1028C0002046FFF754FA0028FAD12046FFF757FABE
:1028D00026463046FFF758FA0028FAD101212C4647
:1028E0002846FFF724FA2046FFF73CFA2046FFF778
:1028F0003EFA0028FAD12046FFF741FA2046FFF7BA
:1029000043FA0028FAD101213046FFF745FA0220A8
:10291000FFF784FB0028FAD00220FFF78BFB012190
:102920002046FFF739FA06B070BD10B5FFF7C2FEBA
:102930007E4C0323012206212046FFF736FA0323AB
:10294000022206212046FFF730FA03231A46062109
:102950002046FFF72AFA0323042206212046FFF728
:1029600024FA0323052206212046FFF71EFA062239
:10297000032311462046FFF718FA032307220621F6
:102980002046FFF712FA0323082206212046FFF70C
:102990000CFABDE81040D1E610B5FFF78BFE634C92
:1029A0000323012205212046FFF7FFF9032302221A
:1029B00005212046FFF7F9F903231A460521204691
:1029C000FFF7F3F90323042205212046FFF7EDF971
:1029D0000522032311462046FFF7E7F903230622C9
:1029E00005212046FFF7E1F90323072205212046B0
:1029F000FFF7DBF90323082205212046FFF7D5F96D
:102A0000BDE810409AE610B5FFF754FE474C03238B
:102A1000012205212046FFF7C8F9032302220421E1
:102A20002046FFF7C2F90223032219462046FFF78A
:102A3000BCF90223042203212046FFF7B6F906233E
:102A4000052210212046FFF7B0F9032306220721B3
:102A50002046FFF7AAF90323072208212046FFF7A3
:102A6000A4F90323082209212046FFF79EF9BDE8B7
:102A7000104063E610B52F4C8CB02046FFF734FAB7
:102A80002D4800902D480021CDE901010822CDE913
:102A90000321802205925200069292002020CDE967
:102AA00007200002CDE9090169462046FFF783FAB5
:102AB0000CB010BD01B400984000009004BF01B0FC
:102AC0007047401E0090FCD101B070471C48B0F91F
:102AD0001A13B0F950229142C4BFB0F85012A0F8B6
:102AE0001A13B0F9DC11B0F950229142C4BFB0F80A
:102AF0005012A0F8DC11B0F91A134229A4BFB0F8A3
:102B00001A1332390FDAB0F91A131029C4BFB0F80A
:102B10001A13103907DCB0F91A130429C6BFB0F82C
:102B20001A13091F0021A0F81A137047002401404E
:102B300000280140080002404C240140840C002081
:102B400014000020F8494FF480500880F7480188AD
:102B500041F020010180F648017841F01001017038
:102B60007047F448016841F400510160016841F484
:102B700080410160016841F4004101607047EE4806
:102B8000016821F480710160016821F40071016025
:102B9000016821F480610160E648016821F4005178
:102BA0000160016821F480410160016821F4004165
:102BB00001607047E1497944B0F5E16F0DDDA0F5A2
:102BC000E16000B2B0F5617FC4BFC0F5E16000B262
:102BD00031F81000404200B27047B0F5617FC4BFC9
:102BE000C0F5E16000B231F910007047B0F5E16F57
:102BF000A4BFC0F5616000B2D1497944B0F5617FEE
:102C000007DDA0F5617000B231F81000404200B25B
:102C10007047C0F5617000B231F910007047F8B527
:102C2000C8480088C84CA4F8A202B4F87C03B4F8E1
:102C30006C130025401A00B2A4F8EA00411E0120DE
:102C4000042934BFA070A570B4F8A202B4F87C13B4
:102C5000401A00B2A4F8EA00401E042802D2A0786C
:102C6000012800D0A570B4F8D002A0F5D051B23937
:102C700001BFB4F8FA02A0F5A051B1F5BF71A07878
:102C80000CBF0128F8BDFEF7A7FC3520FEF72AFD92
:102C9000042084F876008DF80050AC4E09E03046F0
:102CA000FEF7DDFC84F876009DF80000401C8DF8EE
:102CB00000009DF80000002804BF94F87600042866
:102CC000EDD00220A070A4F87C53A4F86C53F8BD9A
:102CD000F8B59C4800889C4CA4F8A202B4F87C0388
:102CE000B4F86C130025401A00B2A4F8EA00411EA3
:102CF0000120042934BFA070A570B4F8A202B4F872
:102D00007C13401A00B2A4F8EA00401E042802D244
:102D1000A078012800D0A570B4F8D002A0F5D05159
:102D2000B13901BFB4F8FA02A0F5A851B1F17D01A3
:102D3000A0780CBF0128F8BDFEF74EFC3520FEF749
:102D4000D1FC042084F876008DF80050804E09E014
:102D50003046FEF784FC84F876009DF80000401CA5
:102D60008DF800009DF80000002804BF94F876005C
:102D70000428EDD00320A070A4F87C53A4F86C5371
:102D8000F8BD2DE9F047DFF8C091704C002699F8A6
:102D90000200DFF8C0A14FF00108254609F5806761
:102DA000022809D023E03AF816102846761CFEF7D0
:102DB0007AFC89F87600AD1CD7F84401854203D22D
:102DC00099F876000428EED00020D7F844118C4200
:102DD0000DD2B8F1000F0AD03AF810102288401C2A
:102DE000914208BFA41CF0D00120BDE8F08700206C
:102DF00089F80200A9F8D002A9F8FA02FEF7F2FB5E
:102E00000020BDE8F0872DE9F047DFF83C91504CF9
:102E1000002699F80200DFF840A14FF0010825468E
:102E200009F58067032809D023E03AF816102846F0
:102E3000761CFEF738FC89F87600AD1CD7F84801FF
:102E4000854203D299F876000428EED00020D7F806
:102E500048118C420DD2B8F1000F0AD03AF8101088
:102E60002288401C914208BFA41CF0D00120BDE87C
:102E7000F087002089F80200FEF7B4FB0020BDE8CF
:102E8000F087364B98683649012222EAD03C4878D0
:102E90006CF38610A1F1060C48709CF801C01CF080
:102EA000020F09D022EA901C9B686CF3C71022EA3B
:102EB000933262F3C30006E09B6822EA933262F326
:102EC000C71020F008004870704710B484461E4CAC
:102ED00001FB01F0B0EB0C02C4F8E803C4F8D823FE
:102EE00044BF5242C4F8D8234B00ACEB00021A4452
:102EF000521EC4E9F73244BF5242C4F8E0231844DA
:102F0000A0EB0C00421CC4F8E423D4F8E0C3D4F8CE
:102F1000D833481C634502DD944523DD01E093422C
:102F200020DD10BC80B27047202C0140142C0140E1
:102F3000260100200C0C01400C08014070AE00007E
:102F40002CAE0000240400401400002000FC000807
:102F500000F800089424002094280020001001406C
:102F60003001002010BC08467047FE497944B0F596
:102F7000803F44D3B0F1807F26D3B0F1805F17D378
:102F8000B0F1804F34BF01EB905101EB1061097833
:102F900034BFC9010902B0FBF1F21144491CC1F36D
:102FA0004F01B0FBF1F21144491CC1F34F018CE712
:102FB000B0F1806F2CBF01EB105101EB904109780B
:102FC0002CBF89014901E6E7B0F5801F0BD3B0F5AE
:102FD000800F34BF01EB903101EB1041097834BF11
:102FE000C9000901DDE7B0F5802F2CBF01EB1031DE
:102FF00001EB902109782CBF89004900D1E7B0F599
:10300000807F19D3B0F5805F0AD3B0F5804F34BF0D
:1030100001EB901101EB1021097838BF490854E702
:10302000B0F5806F2CBF01EB101101EB9001097816
:103030002CBF8908C908F2E7095C090945E72DE9B1
:10304000F04FC94991B000208871A1F82401A1F87E
:1030500026010872C871487501F58062906110629E
:10306000A1F83A01A1F83801A1F846010877A1F8C2
:103070005401A1F85A01C87781F82000A1F8640131
:10308000A1F86601A1F86E01A1F87201A1F874011E
:1030900081F82200012381F82330A1F88401A1F8EE
:1030A000860181F82700A1F88A0181F8280081F8BB
:1030B0002900887781F82A0081F82B0081F82C00FC
:1030C000A1F85C01A1F86001A1F85E0181F82D0072
:1030D000A1F88C01A1F88E0181F82E00A1F89001D1
:1030E000A1F89201A1F89401A1F8980181F83000AB
:1030F00081F83100A1F89A0181F83200A1F89C0111
:1031000081F8340081F8350081F8360081F8370005
:1031100081F83D00A1F8A201A1F8A401A1F8A8013D
:10312000A1F8AA015064A1F8AC01A1F8AE01A1F880
:10313000B0019064D06481F83E00D06581F83F0012
:10314000A1F8B40181F8400081F8410081F8420003
:1031500081F84300A1F8B601A1F8B80181F8440054
:10316000A1F8BA011066506681F8450081F8460062
:1031700081F84700A1F8C60181F8490081F84A00AA
:10318000A1F8CA01A1F8CC0181F84B0081F84E00EA
:1031900081F84F0081F8500081F85100A1F8D0016A
:1031A000A1F8D201A1F8D401A1F8D601A1F8DC015F
:1031B00081F85300A1F8E2014874106750679067E6
:1031C00081F8570081F85F0081F8600081F86100A4
:1031D00081F86200A1F82802C2F88400C2F88800D1
:1031E000C2F88C0081F8670081F86A00A1F84602F5
:1031F000C2F8A400C2F8A800C2F8AC00C2F8B0003F
:10320000C2F8B400C2F8B800C2F8BC00C2F8C000EE
:10321000A1F84A02A1F8500281F86E00C2F8C40079
:10322000C2F8C800C2F8D000C2F8D80081F8700017
:10323000A1F86002A1F87602A1F8620281F871009B
:1032400081F8720081F87300C2F8F000C2F8F4004F
:10325000C2F8F800A1F8720281F880004FF46143CF
:1032600093624FF4806353620A23A1F83C31A1F8C2
:103270003E3142F21073A1F848316FF07F434FF4B2
:10328000006E9365A1F8C0E1A1F8C2E1012381F8C5
:103290004C301D02A1F8DE514FF4C863A1F80E3284
:1032A000A1F81032AB01A1F81232C2F8FC30202391
:1032B00081F87E30042781F87D70282381F87F30E3
:1032C0004FF47A73C2F80451A1F88A32C2F80801A7
:1032D000C2F80C01A1F88C02A1F88E02A1F89002AC
:1032E000A1F89202A1F89602A1F89A02A1F8980218
:1032F000A1F89C02A1F89E0281F8840081F8850063
:10330000C2F81001C2F81401C2F81801C2F81C0179
:10331000C2F82001C2F82401C2F8280181F888000F
:10332000A1F8A202A1F8A402C2F83001A1F8A602F5
:10333000A1F8A802C2F83401C2F8380181F8890066
:10334000C2F83C01A1F8AA02A1F8AE02A1F8AC02B1
:10335000A1F8B002A1F81003A1F80E03A1F8C80269
:1033600004E00000E2BA000014000020A1F8CE0240
:10337000C2F88001C2F88401A1F8D002A1F8DC02F1
:10338000A1F8DE02A1F8E002A1F8EC02A1F8EE0239
:10339000C2F88C01C2F89001A1F8F202A1F8F4027F
:1033A000A1F8F60281F8920081F89300A1F8FA02E0
:1033B00081F88300A1F8FE02A1F80003A1F812032E
:1033C000A1F81403A1F81803A1F81A0381F89900D1
:1033D00081F89B0081F89C00C2F8BC01A1F82A0387
:1033E000A1F82C03FE4BC2F84431FE4BC2F8483121
:1033F0004FF4807CA1F802C34FF4804CC2F898C10E
:1034000040F6980CA1F806C3A1F808C34FF0190CB8
:10341000A1F82EC34FF4167CA1F852C3C2F8C00124
:10342000A1F83203C2F8C401C2F8C801C2F8CC0145
:10343000C2F8D001A1F8340381F8A40081F8A500F6
:1034400081F8A60081F8A70081F8A800C2F8E00181
:10345000C2F8E401A1F84803A1F84A03A1F84C031B
:1034600081F8AA0081F8AB00A1F8580381F8B300F5
:1034700081F8B400A1F86C03A1F87003A1F87203FD
:10348000C2F8F001A1F87C03C2F8F40181F8C4008D
:1034900081F8C50081F8C60081F8C90081F8CA002A
:1034A00081F8CC0081F8CD0081F8CE00A1F884032A
:1034B000C2F80802A1F8860381F8D600A1F88A03B1
:1034C000C2F80C02A1F8960381F8CB0081F8D8006D
:1034D000A1F86402A1F86602A1F8680201F5837CF4
:1034E00081F887009CF801C001F583742CF0300C42
:1034F00084F801C001F58D7C01F585769CF80040CB
:1035000081F85800A1F88803367801F5857826F00F
:10351000010688F80060C2F8580124F02004C2F8BF
:10352000CC008876642081F8AC00032081F8B900D3
:10353000102081F8CF00012081F82100A1F8980324
:103540004FF49060A1F8EC01012081F8A30001F58F
:10355000877001F58776007840F08000307042F285
:103560001070C2F82C0101F58D7044F080020270D9
:1035700014380124007881F8594081F85E404CF2FB
:103580005034A1F846434FF6FA74A1F8B24201F55F
:10359000837140F00300087001F11400924C4078F0
:1035A00020F0080601F11400A0F58D79467020681E
:1035B000C0F3821089F877002168C1F3821189F87D
:1035C0007A108142F3D189F8AE000021874826F0B5
:1035D000F40C89F87B10A9F8A0124CF0020C861F9D
:1035E00080F801C096F800C02CF04004347089F8CF
:1035F000B71089F8B810A9F8B41289F8D11089F871
:10360000D21089F8D31000F2E62A89F8D4104FF4CA
:10361000706C22F04002CAF83CC002700D92CAF8E9
:1036200088117078B21E20F0100070700A905078E7
:103630004FF0010C40F00C005070099089F89EC0CA
:10364000A9F8F05289F89AC0694A481E1080E046ED
:10365000002002F5C05204E033F802BB22F810B09B
:10366000401CDAF844B15B4502D2B8F1000FF3D147
:103670004FF0010B4FF000085E485F4B05E030F85B
:1036800002AB23F818A008F10108DFF870A1DAF8FE
:1036900048A1504502D2BBF1000FF0D1DFF86081A4
:1036A00098F8010020F0040088F801000C9089F8D7
:1036B0008E10A9F8CC12DFF84C81002028F81010E9
:1036C000401C0C28FADB5048D0F800A0DFF83C8101
:1036D000C244CDF808A0DAF800A0CDF800A0D0F8D8
:1036E00004A0C8F1000BDA44CDF808A0DAF800A075
:1036F000CDF804A08068404402900068444E0290D7
:1037000024F0080030700F90A9F8C212002032F89F
:103710001040B9F8C2623444A9F8C242401CB0F566
:10372000FF7FF4DD32F81000B9F8C242A04218BFA2
:1037300089F8D8C089F856105088B0F5857F02D82E
:103740005088F62800D255809088B0F5857F02D841
:103750009088F62800D2958050884FF45224604318
:10376000000CA9F8600394884FF452206043000CC9
:10377000A9F8620340F23440A9F8640340F22A40F9
:10378000A9F86603401FA9F8680340F21140A9F8A0
:103790006A03B2F87801B0F5B46F9CBFB2F8780153
:1037A000B0F5527F05D27820A9F868036420A9F803
:1037B0006A03148940F2E240844204D8108940F23E
:1037C0004C44A04202D240F2924010819089B0F560
:1037D0007A7F02D29089C8281DD240F2253019E0A4
:1037E0000000010800FC0008080C01402E01002028
:1037F000940C002000F800089428002014040020F5
:103800002A010020A02D0020C807002075FF3200EB
:10381000280100209081A9F8D2E2FD4C4FF400600D
:10382000A4F8D402A4F8D60204F5806047F629086B
:10383000C0F8348041F27076CDF82C80A2F84A604E
:10384000F44842F2602AA0F84CA0F24C4FF45270B7
:10385000A4F878010320A4F874012020A4F87601CC
:103860004046A4F87A010620A4F80E01E84880F842
:10387000A910B3F8FEB34024ABF5AA4E00F2547081
:10388000BEF1FF0E04BF89F8D8C089F856C010D029
:10389000B3F8FEB3ABF5AA4EBEF1DD0E1CBFB3F814
:1038A000FE33002B00F0BA8199F8D830002B00F0DD
:1038B000DE8143F6982393854FF45273D3850388B2
:1038C00013854388938683881386C3885385038929
:1038D000A2F8C8304389A2F8CA304FF47A63A2F83C
:1038E000CC30038A9384438AD387868A4FF6FF734A
:1038F00003EA86065686868A4AF6AB2806FB08F651
:10390000B60C1687C68A03EA8606A2F85A60068BAA
:1039100003EA4606A2F84E60468B03EA4603A2F885
:103920005030838B1384C38B5384038C1383438C59
:10393000A2F8BA30838CA2F85C30C38CA2F8DA30DB
:10394000038DA2F84030438DA2F84230838DA2F857
:103950004430C38DA2F84630038EA2F80431438E62
:10396000A2F8DC30838EA2F85E30C38EA2F8483015
:10397000A2F8FA700623A2F8FC30AA26A2F8FE608C
:10398000D1820A26168255824FF0D408A2F81E80F2
:1039900040F24918A2F83680A2F86070A2F862706E
:1039A000A2F864304FF46073538340F2E243938390
:1039B0002023A2F86231A2F86441A2F86641602394
:1039C000A2F86831A2F80611A2F80C61A2F87C11E5
:1039D000A2F8B011B2F8FA303C2B03D8B2F8FA30A2
:1039E000022B01D2A2F8FA70B2F8FC30502B03D8A7
:1039F000B2F8FC30042B02D20623A2F8FC30B2F855
:103A00000031A9F83A331BB22833832B24BF192382
:103A1000A9F83A33B2F86231802B03D8B2F8623198
:103A2000052B02D22023A2F86231B2F86431802B38
:103A300003D8B2F86431052B01D2A2F86441B2F880
:103A40006631802B03D8B2F86631052B01D2A2F87B
:103A50006641B2F86831802B03D8B2F86831052B83
:103A600002D26023A2F86831B2F80631102B88BF69
:103A7000A2F80611B2F80C31522B84BF0A23A2F827
:103A80000C31B2F8C830C3F30D03A2F8C830B2F855
:103A9000CA30C3F30D03A2F8CA30B2F8CC30C3F376
:103AA0000D03A2F8CC30538DC3F30D035385938CD3
:103AB00003F007039384B2F8DA3040F6B836B34225
:103AC00005D3B2F8DA3044F62066B34203D942F2A5
:103AD0001073A2F8DA30D38903F03F0389F81D3060
:103AE000138FFA2B05D9838A4AF6AB2673439B0CB6
:103AF0001387138F142B3CBF14231387138F89F85C
:103B00001430D388B3F5967F03D8D388B3F5807F7C
:103B100000D2D5805389B3F5967F03D85389B3F586
:103B2000807F00D25581D388A9F8E6325389A9F85D
:103B3000E832138D102B02D3138D202B00D917855B
:103B4000354BA9F82C11C3F8D411C3F8DC11D38D6F
:103B5000A9F882339BB2B3F5527F88BF4FF45273FA
:103B600005D8B3F5B47F38BF4FF4B47301D2A9F8C8
:103B70008233138DDBB289F8BC30968DA9F840638F
:103B8000B6B247F23058464588BF47F2305605D89E
:103B9000B6F5AF7F38BF4FF4AF7601D2A9F84063D6
:103BA0004FF48066A9F82463FA265E43A9F80A62F6
:103BB000102B24BFB308A9F80A32B2F8623189F891
:103BC000AF30B2F8643189F8B030B2F8663189F8B4
:103BD000B130B2F8683189F8B230B2F80631DBB2F0
:103BE00089F86D30102B84BF102389F86D30A9F847
:103BF0002612084AB2F80C211623D2B289F8C7203F
:103C0000522A7CD389F8C730802289F8C820B9E0CD
:103C100014000020942400201404002089F8D8C047
:103C200089F856C0A2F84A60A2F84CA04E23A2F828
:103C3000C2304423A2F8C430A2F86A61A2F86CA191
:103C40004FF45273A2F878310323A2F87431202381
:103C5000A2F87631A2F87A810623A2F80E31A2F8F2
:103C60007C11A2F8B01189F8A9C0D18121E6B2F87F
:103C7000C2803F23B8F1800F88BFA2F8C230B2F8EB
:103C8000C480B8F1800F88BFA2F8C430938E012B96
:103C900084BF43889386B2F8308042F6E06398454B
:103CA00084BF83881386D38FB3F5FA6F84BF438AAA
:103CB000D387538EB34205D9868A4FF6FF7303EA42
:103CC00086035386B2F85A6042F210739E4206D9B8
:103CD000C68A4FF6FF7303EA8603A2F85A30B2F899
:103CE0004E30282B03D8B2F84E30042B06D2068B68
:103CF0004FF6FF7303EA4603A2F84E3000E035E0CA
:103D0000B2F850303C2B03D3B2F850305C2B06D9BC
:103D1000468B4FF6FF7303EA4603A2F85030138C2C
:103D2000042B84BF838B1384538C042B84BFC38BDD
:103D30005384B2F8BA30072B84BF438CA2F8BA3050
:103D4000B2F85C30072B84BF838CA2F85C30B2F8E9
:103D5000FE30552B1FBFB2F8FE30AA2BAA23A2F8C3
:103D6000FE30D38A012B18BFD18233E63C2A0FD311
:103D70003C3A89F8C720202289F8C82099F8C72042
:103D8000162A0FD389F8C730802289F8C8200EE0A0
:103D90001E2A23BF1E3A89F8C72089F8C84080220E
:103DA000ECD2E9E7032A3CBF032289F8C7200022AE
:103DB000FE4B9954521C082AFBDBFD4B7B4499F8BF
:103DC000C7209B5CDE01FB4BC3F80462FA4B7B44CB
:103DD000DFF8E8A39A5C99F8C8305A43F54BC3F86A
:103DE000002289F86B10002289F86C20BAF856215D
:103DF0000AF5036B4FEA024ECBF804E0BAF85821FB
:103E00004FEA0248CBF80880BAF85A211604CBF8DA
:103E10000C60BAF85C211304CBF81030BAF85E21BC
:103E20001204CBF81420BAF860A14FEA0A4ACBF882
:103E300018A0DFF88CB3F345B8BFBEF1005F1FDAFE
:103E4000DFF880B39345BCBFDFF87CB35A4517DA7F
:103E5000B3F1C04FC4BFDD4A9A4211DDDC4A52457E
:103E6000B8BFBAF1204F0BDADA4A4245BCBFDA4A92
:103E7000904505DAB6F1604FC4BFD84AB2421CDCA7
:103E8000D74AD84B82F80AC0D74A53609B05536182
:103E9000D64B13615B4293615B059360D44BD36057
:103EA0002032D44B5361D44B1361DB059361D34B68
:103EB000C2E90113D24BD3605DE0DFF800A3BAF88A
:103EC00042210AF5056B4FEA024ECBF804E0BAF83E
:103ED00044214FEA0248CBF80880BAF8462116047C
:103EE000CBF80C60BAF848211304CBF81030BAF8BC
:103EF0004A211204CBF81420BAF84CA14FEA0A4A1E
:103F0000CBF818A0D346DFF8D4A2D645C4BFDFF85B
:103F1000B0A2F24520DDB2F1005FC4BFDFF8A4A279
:103F2000924519DDA84A9A42B8BFB3F1C04F13DADF
:103F3000A64B0BEB03025B009A420DD9B8F1204F60
:103F4000C4BFA44A424507DDA34AB242BEBFB6F190
:103F5000604FA34A91720EDBAA4AA64B5361A64B4F
:103F60001361DB059361A54BC2E90113A44BD36038
:103F70009B4B02229A72A34A02F1200356695E60AB
:103F800016695E6196691E6196689E61D6689E603C
:103F90005268DA60A3F507635A8BB2F5806F03D8D5
:103FA0005A8BB2F5007F02D24FF460725A839A8B1B
:103FB000B2F5806F03D39A8BB2F5C06F02D940F28D
:103FC000E2429A835A8BA9F8D8219A8BA9F8DA2170
:103FD00092B2A2F10A06B9F8D8219642DCBF0A32A1
:103FE000A9F8DA211A8A142A02D21A8A052A01D2D9
:103FF0000A221A82714A138A834A0021A2F80232E5
:10400000A2F8C8116D49B1F8FA10C1EB81318900ED
:1040100009B2A2F84412694AB2F8FC207A4BC2EB0A
:1040200082329200A3F84822A1EB81018A0003F5B5
:104030008061C1F84021009A019B1A44029BDFF87D
:10404000D091D618714AA2FB0632D208524202EB36
:10405000820206EB420202F1300301F52672137070
:1040600005930693A9FB06835B096FF0180803FB11
:1040700008F3DFF8988106EB8303A8FB0383DB08D2
:104080003033537003934FF47A780493B6FBF8F30C
:1040900008FB136303EBC30A0AEB43131B0B303318
:1040A00003F0FF0A42F21073B6FBF3FB03FB1B663F
:1040B000B6FBF8F6303682F802A0F6B2D670079654
:1040C0000896019EDFF844B1ABFB06EB4FEADB0B31
:1040D000CBF1000B0BEB8B0B06EB4B0606F1300B19
:1040E00082F804B0019EA9FB06E94FEA59196FF066
:1040F000180E09FB0EF906EB8906DFF81091A9FBF3
:104100000696F60806F1300982F80590019EB6FB86
:10411000F8FE08FB1E6606EBC60E0EEB4616360BC7
:104120003036F6B296710E96019EB6FBF3FE03FB97
:104130001E63B3FBF8F3303303F0FF0882F8078007
:10414000089E069B06EB0362049B1B0403EB0A23F9
:104150001A44C1F890200E9E4FEA094308EB0B6207
:1041600003EB06231A44C1F89420DFF8A880C1F8B5
:10417000D480D1F8902002EB0803274A1344D1F8E9
:104180009420264E32445A43C1F89421D1F89030FD
:10419000D1F894904B44434433445A43412303EBB6
:1041A0001273A1F58068C1F8DC2039E0B62C00203C
:1041B0003B9C000014040020409C0000942400203C
:1041C00000AAAA0A0055553500AAAA4A00555575F5
:1041D00000ABAA8A005655B500ABAACA005655F5E1
:1041E000500C002000555515C42C002000AAAA6AC6
:1041F00000ABAAEA00AAAA2A0055555500ABAAAA04
:10420000005655D5E42C002014000020CDCCCCCC99
:104210001F85EB513832694C73E7F505D1FF323019
:1042200088F8A230C2F30363413388F89D30C2F3AB
:104230000353413388F89830C2F30343413388F87D
:104240009430C2F30333413388F88F30C2F3032331
:10425000413388F88D30C2F30313413388F8863038
:1042600002F00F02A1F58063413283F88120DFF86C
:1042700030840022A8F50063C1F8986003EB420681
:10428000B6F89061082AF6B208F8026018BF092A49
:1042900006D0D1F8989006FB09F6B608C1F89860E8
:1042A000521C102AEADBFF4E0022A6F5217E08EB05
:1042B000020B16F802908BF8109003EB4209B9F844
:1042C000B8910EF80290521C042AF0DB8946D1F80E
:1042D0009860059AF44906FB0212039E920802FBBD
:1042E0000612920802FB0A12079E920802FB0611B0
:1042F00089080A0AED4EC9F8DC10A6FB02BA4FEA9B
:10430000DA0A6FF00C0B0AFB0BFA02EB4A0241329D
:1043100088F80820090CA6FB0162D60806FB0BF200
:10432000C9F8981001EB42014131E14E88F80910BB
:104330004FF0000886F817809EF80010724620396A
:104340005F2912D2517820290FD37E290DD8917878
:1043500020290AD37E2908D89EF80310202904D3E7
:104360007E2998BF86F8188001D902213176D1497B
:10437000002203EB420ABAF8C4A10AF0FF0A01F8CE
:1043800002A0AAF1300ABAF10A0F28BF01F8028090
:10439000521C0E2AEDDBA6F86E83B3F8FE201946F8
:1043A000AA2A04D1C44B0F9A42F060021A7086F810
:1043B000BA8086F8BB8086F81A80B1F84420D2B261
:1043C000C2F3810386F8BD20F376022B84BF02235B
:1043D000F37602F0030286F8BD2086F8138086F893
:1043E0001980C6F8D08386F8BE8086F8918086F85A
:1043F0005A80122286F85D20B1F84820A6F80022E3
:1044000012B2242AC4BF2422A6F8002203DC012A07
:10441000B8BFA6F800C2C9F87CC00A8BB2F5616FBC
:1044200024BF008C0883A548A54A4368D21AC9F85E
:10443000E8214269D9F8E831C2F180421A44C9F84A
:10444000E821A04A0369D21AD9F8E8311A44C9F818
:10445000E8219D4A8369D21AD9F8E8311A44C9F88B
:10446000E8218268D9F8E831C2F140421A44C9F81B
:10447000E821C2689548801AD9F8E8211044C9F8A3
:10448000E801D9F8E801924A82FB0020A0EBE07035
:10449000C9F8E801D9F8E8010014C9F8E801D9F829
:1044A000E801C0EB4012C2EB00200013C9F8E8019C
:1044B0000A8BD9F8E8011044C9F8E801D9F8E801F5
:1044C000B0F5616F05DBD9F8E801A0F56160C9F8C6
:1044D000E801D9F8E801002805DAD9F8E80100F583
:1044E0006160C9F8E801D9F8E801B0F5616F03DA55
:1044F000D9F8E801002806DAC9F8E8816E480278A0
:1045000042F040020270B1F8BA200C98714B62F38D
:104510004100B1F8BA20520862F300005870B1F8B7
:10452000BA006D4A83080D9863F30000107010F014
:10453000010F039006D0B774022086F8520086F867
:10454000387005E086F8528086F8128086F8388048
:10455000B1F8C22061480270B1F8C4204270888E60
:10456000DFF854B19BF8003060F341038BF8003062
:104570000A8EB6F882A330460AEB4A0E0EEBCA0E3C
:1045800002FB0EF241F6501E92FBFEF2A6F8342218
:104590004A8DA6F83622B1F8C820A6F83822B1F81C
:1045A000CC20A6F83A22B1F8CA20A6F80C238A8CAF
:1045B00080F868200A9AA0F8788180F86F8022F04D
:1045C00060028BF80120A0F8FC82B1F83EB0A0F8A0
:1045D0005CB2A0F82E81B1F854B0A0F87EB31FFAF7
:1045E0008BF0B0F57A7F84BF3120A6F87E03B1F856
:1045F0005600C0B286F8C200C02888BF86F8C280C4
:10460000BAF5876FB6F85C020CBF1E301430A6F8FE
:104610005E02488FC0B286F8C000801E7F2824BF8B
:10462000082086F8C000488EB1F84AA0504584BFE3
:10463000B1F84A004886488EA6F83C02B1F85A0004
:10464000B1F84CA0504584BFB1F84C00A1F85A0015
:10465000B1F85A00A6F83E02DFF884E009980EF19E
:10466000060B20F001008EF801009EF8000020F0FB
:1046700040008EF800009BF800A02AF0010A8BF899
:1046800000A0CDF814A0B1F85CA0BAF11B0F88BF50
:10469000A1F85C80B1F85CA086F85BA022E0000085
:1046A000942C0020AC06002073E7F5054FECC44EB7
:1046B00014000020A82C002028010020C42C002079
:1046C0000055551500AAAA6A0056559500ABAAEAEE
:1046D000ABAAAA2A2A0100202E010020E003002014
:1046E00026010020B1F85EA0BAF1E00F84BF4FF0C0
:1046F000100AA1F85EA0B1F85EA0BAF1000F04BFE5
:104700004FF0100AA1F85EA0B1F85EA0A6F8F8A1DB
:104710000FFA8AFA5FEAEA0AA6F8FAA108BFA6F831
:10472000FAC186F8AD80A6F85A83C9F89C81A6F82C
:104730005281A6F8508147F2305AC9F8A081A6F8F4
:104740004AA1B1F860A0BAF1100F04D8B1F860A086
:10475000BAF1000F01D1A1F86070B1F862A0BAF10E
:10476000100F04D8B1F862A0BAF1020F01D2A1F87B
:104770006270B1F864A0BAF1180F04D8B1F864A05F
:10478000BAF1030F03D24FF0060AA1F864A0DFF8D4
:104790007CA59AF800B02BF0100B8AF800B0A6F8B0
:1047A0007E81B1F860A04FF6FF7B0BEA8A0AA6F87B
:1047B00018A2B1F862A00BEA8A0AA6F81CA2B1F806
:1047C00064A00BEA8A0AA6F820A2B6F818A20AEB9F
:1047D0008A0A0BEA4A0AA6F81AA2B6F81CA20AEB41
:1047E0008A0A0BEA4A0AA6F81EA2B6F820A20AEB29
:1047F0008A0A0BEA4A0AA6F822A2DFF814A520F0DA
:1048000080008AF800000490B6F81802A6F8140296
:10481000B6F81A02A6F816020AF1020022F00802FF
:10482000427023F004030370009AB1F8AEA0524422
:10483000B1F8ACA002EB0A4A00F53B72C2F8E8A05E
:10484000B1F84020032A8EBF86F82580B1F84020B9
:1048500086F82520B1F84220012A14BF86F824806A
:1048600086F824C013F0600F04D086F824C04E20D0
:10487000A6F87A0386F84D8086F85080B1F8460095
:1048800040B1B1F846001F289CBFB1F8460086F839
:10489000260001D986F82670B1F80401082888BFDF
:1048A000082008D8B1F8040100280CBF86F863C0BE
:1048B000B1F8040101D086F86300B1F87601202830
:1048C000B1F8760128BF202006D2C0B286F8690070
:1048D000152838BF152001D286F8690096F86D00BA
:1048E000082806D2B6F8340240F24D12B0FBF2F0BE
:1048F00006E0B6F834224AF2D73000FB0200C00DC1
:10490000A6F880034AF6C870A6F89E010020A6F813
:104910005E0386F882004FF06408FE4AA2F8008029
:1049200002F1500AAAF80000B2F80080B6F83E92F0
:10493000A2F1280B08FB09F84FEA9818ABF80080A1
:10494000BBF80080B2F80090B6F83EE209FB0EF921
:1049500008EBE918ABF80080BBF800801288B6F8C5
:104960003E9202FB09F208EB2222ABF80020BAF9D2
:1049700000204FF4961802FB08F2BAF900801214D6
:10498000AAF1280E4FF4966908FB09F802EBE81229
:10499000BAF9008008FB09F802EB2822DFF87883D7
:1049A000AEF800200B9AA8F8002086F8960086F84A
:1049B0009700BBF80000AAF54B798009C9F8A4015B
:1049C00096F8D890B6F880830120AAF15002B9F188
:1049D000000F10D0D14931F8101022F8101032F821
:1049E00010C0CF4901EB4001A1F818C13AF810C03E
:1049F000A1F8E0C123E0CA4901EB4001B1F818C1B8
:104A000022F810C0B1F8E0112AF8101032F8101096
:104A1000642907D932F8101021B9C04931F81010B3
:104A200022F810104045C8BF012106DC07D132F83A
:104A30001010292988BF292101D922F8101032F835
:104A40001010B6F83EC201FB0CF14FEA911CB549BB
:104A500021F810C031F810C032F810B0B6F83EE2BC
:104A60000BFB0EFB0CEBEB1C21F810C031F810C057
:104A700032F810B0B6F83EE20BFB0EFB0CEB2B2C21
:104A800021F810C03AF910104FF4961C01FB0CF1FC
:104A9000DFF894E23AF910C009144FF4966B0CFB5E
:104AA0000BFC01EBEC113AF910C00CFB0BFC01EB19
:104AB0002C212EF81010401C132888DBAEF150007A
:104AC000818CC1845030818CC184019ADFF850B24E
:104AD000BBF8B210BBF8B0001144AEF5417A01EB5F
:104AE0000040CAF8E00042F6E060A6F80A0396F833
:104AF00069004E2148434009A6F8CE01B6F83E129F
:104B0000484340F30F20A6F87C02B6F8D2120144C5
:104B10000FFA81F8A6F88482B6F8D212091A0FFAB1
:104B200081FCA6F886C2B6F8D61201440AB2A6F8ED
:104B30008022B6F8D61240F6F169091A09B2A6F831
:104B40008212C845C8BFA6F884924FF48778BCF596
:104B5000877FB8BFA6F886824A45C8BFA6F880926C
:104B6000B1F5877FB8BFA6F88282B0F5DE6FA4BF2B
:104B700040F2EF60A6F87C0280B24042A6F87E02C6
:104B80006A490020A6F870024A78D84622F010023E
:104B90004A70BBF84E10A6F84012B6F84012644AAC
:104BA0005143090CA6F86C12BBF85010A6F842123B
:104BB000B6F84212A6F87813B6F842125143090C1F
:104BC000A6F86E1230744FF49671A6F8881286F823
:104BD0007900B8F8201086F8B51056490880B8F862
:104BE000221086F8B610B8F8DA10A6F80413B8F850
:104BF000DC2040F2011131EA020218BFA8F8DC10F3
:104C0000B8F8DC204C49DFF808910A800978C1F334
:104C1000420286F83920C1F3421186F83A1004990D
:104C2000464A21F0200189F8001086F88A0086F8AB
:104C30008B0086F88C007A4496F863C012F80C203A
:104C4000A6F86A22029AB8F8B6C06244B8F8B4C0AE
:104C500002EB0C42CAF8E42086F8C100A6F8C202B2
:104C60003622A2F15C0CBCF1130F06D338F812C047
:104C7000B6F8C2B2DC44A6F8C2C2521C7C2AF0DBF1
:104C8000B8F8B820B6F8C2C2624514BF43F01002AB
:104C900023F010022A4B1A70B8F80EC1BCF1060FAF
:104CA0001CBFB8F80EC1BCF1550F3CBF42F010025A
:104CB0001A70B8F87421032A1CBFB8F87421062AA8
:104CC00008D0B8F87421B2F5807F03D81A7842F082
:104CD00010021A70DFF86CB0039A42F004028BF8ED
:104CE0000020B8F8B0C1BCF1630F05D093F800C044
:104CF0004CF0100C83F800C0DFF824C04FF0630EB6
:104D0000ACF87CE1DFF840C020E00000300100207A
:104D100026010020F0060020C4080020A007002083
:104D200094240020C8060020180700202401002039
:104D3000006029002001002032010020E69D0000D3
:104D4000280100202E0100202C010020DDF8148015
:104D500041F0100128F010088CF8008086F8BF00A0
:104D600089F800104FF4FA61A6F89213A6F894138C
:104D700096F8561000291FBF197841F010011970DC
:104D800042F0020108BF22F002018BF8001086F801
:104D900075004FF000084FF080091027DFF828A4B5
:104DA0006D20B8F1000FCAF8180242F66960CAF81F
:104DB0001C0208FB08F0CAF8200209D0B8F1800FE5
:104DC0000ADAA6F82A52A6F82C92A6F82E422BE070
:104DD000FE49002008806FE0B8F5807F06DAA6F86B
:104DE0002A42A6F82C42A6F82E921DE0B8F5007FC4
:104DF00007DAA6F82A722021A6F82C12A6F82E525D
:104E000012E0B8F5806F06DA0421A6F82A12A6F897
:104E10002C72C90106E00121A6F82A120821A6F881
:104E20002C12C901A6F82E12C001B6F82A1200F5FC
:104E3000382000F5D2504843FEF797F8CAF814021C
:104E4000B6F82C12DAF8182201FB1200CAF8100288
:104E5000B6F82E124843B0FBF8F083B20020A6F853
:104E60009A334FF46171B3F5804F3CBFDFF860C3F4
:104E7000FC4407D23CF910209A421AD03CF9112088
:104E80009A4201D1084614E00A1A02EBD27200EBF2
:104E9000620292B23CF912A09A4501D1104608E094
:104EA000A7BF511E89B2501C80B28842E2D9084483
:104EB0004008C64921F8180008F10108B8F5C06F8C
:104EC000FFF66CAF0027A6F85272A6F83272C14CFA
:104ED00086F86670A6F85C73B4F8F200B4F8F410C3
:104EE0000844B4F8DE10B4F8E420DFF8EC82114492
:104EF0000844A6F8C40286F854704FF47A70A6F8F5
:104F00004C0186F855709BF80000002520F0080041
:104F10008BF8000098F8000008F1140920F0010057
:104F200088F8000086F8D570FDF7ABFF99F801000E
:104F300010F0080F04D096F8D500401C86F8D50074
:104F40000120FDF77BF96D1C032DEDDB96F8D500F4
:104F50000328A248017814BF21F0200141F020016C
:104F60000170012086F8D5009D48407810F0020FAE
:104F70000FD1012211469B48FCF7DEFA9A480178CE
:104F800041F04001017098F8000040F0010088F8FD
:104F9000000086F8D5700098B4F8AE100844B4F854
:104FA000AC1000EB01418848C0F8E8100199B4F852
:104FB000B2201144B4F8B02001EB0241C0F8E01077
:104FC0000299B4F8B6201144B4F8B42001EB0241C0
:104FD000C0F8E410B4F8A010B4F8A22001EB02412C
:104FE000C0F84C11B4F8A410B4F8A62001EB0241AB
:104FF000C0F85011B4F8A810B4F8AA2000F57073E6
:1050000001EB0241C0F854111968784A114400912B
:10501000096800910099B4F86E20B4F86CC001EBF7
:105020000C411144B4F88620B4F884C002EB0C4261
:10503000891AC0F85C115A686D490A4400921268D6
:10504000B4F872C06244B4F870C002EB0C42009233
:10505000009AB4F888C0B4F88A500CFB1522C0F846
:1050600060219A68114400910968B4F876201144CF
:10507000B4F8742001EB024100910099B4F88E203D
:105080001144B4F88C2001EB0241C0F8641100F522
:1050900073710A68574B1A4400921268B4F87A3058
:1050A0001A44B4F8783002EB03420092B4F8962028
:1050B000B4F8943002EB0342009B9A1AC0F86821BE
:1050C0004B684D4A134400931B68B4F87EC0634498
:1050D000B4F87CC003EB0C430093009BB4F892C07F
:1050E0006344B4F89CC0B4F89E500CFB05FCB4F8C3
:1050F00090500CEB054C6344C0F870318968114442
:10510000009109680091B4F88210B4F8802001EB96
:105110000241009A511A0091B4F89810B4F89A20FC
:1051200001EB0241009A511AC0F874110099B4F8C9
:1051300098201144B4F89A2001EB0241C0F878118C
:1051400011B0BDE8F08F2D4A117811F0800F08BF23
:1051500070472B4BB3F8C8023C3880B2A3F8240246
:10516000B3F846C3BCF5E15F38BF704730B50024E3
:10517000A3F87242B3F89053DFF860C0A84224BF8E
:10518000B3F88E53A84208D3B3F88C53A84224BF77
:1051900083F8D24021F0800012D2FDF7D3FC93F8BF
:1051A000D2008A283CBF401C83F8D20009D39CF867
:1051B000010040F010008CF80100107820F0800011
:1051C0001070B3F890031DE014040020B82D0020E7
:1051D000B68B0000942400201C0100201A0100203E
:1051E000320100200014014036010020B016D3FE29
:1051F00050E92C01B3FF0A004D00F5FF2201002009
:1052000014000020062821BFB3F88E030628B3F847
:105210008C03062824D2FDF795FC93F8D1008A2848
:105220003EBF401C83F8D10030BDB3F89003062880
:105230003FBFB3F88E030628B3F88C03062804D3C7
:10524000FE48017841F0100101709CF8010040F027
:1052500020008CF80100107820F08000107030BD24
:1052600083F8D140107820F08000107030BDF449F0
:1052700010B4487810F0020F04BF10BC704720F043
:1052800002004870EF4AB2F8C80240F24951484360
:10529000ED49000B89884843012303EB2020A2F845
:1052A000FC0202F58060D0F8A4104909C0F8BC11D6
:1052B000D0F8BC014FF446714843010C02F58970E7
:1052C000A2F84612407810F0080F06BFB2F85C0151
:1052D000081A0020A2F8600100B2082809DDDFF8F2
:1052E0006CC39CF8004044F002048CF8004082F843
:1052F0005830A2F85C11B2F95E118142B8BFA2F831
:105300005E0110BC7047CE49087810F0080F08BF46
:1053100070472DE9F00320F008000870CB48DFF853
:1053200024C34FF0000401884804400C06BF00224B
:105330008CF8674000200CD011F0010F02D0401C07
:10534000C2B204E0401C4908C0B21028F4D38CF863
:105350006720BF48BF4DA0F58A760778B6F80001F0
:1053600096F82C6000F101018BB206F1010117F0F3
:10537000100F4FF03209C9B21BD08CF805903228BB
:1053800004D2ACF80031BDE8F0037047102E34BFF2
:105390008CF82C108CF82C40ACF800419CF82C00B8
:1053A0000A2899BF286880F00400BDE8F003704720
:1053B00063E0DFF8A48202B3BCF88C12002907BFB7
:1053C000D8F8B0100029BDE8F0037047B0F57A7F37
:1053D0003CBF296821F0040153D3A0F57A71CE17A0
:1053E00001EB566626F07F06891B11F0FF0F04BF04
:1053F000296881F0040145D143E017F0600F26D001
:10540000BCF88C22002A04BFD8F8B020002A06D0AD
:10541000286820F004002860BDE8F00370478CF88D
:1054200005903228ADD3142E34BF8CF82C108CF894
:105430002C40ACF800419CF82C0000281EBF02282C
:10544000401F0A2816D8286840F0040015E0834859
:10545000407810F0800F0DD0D8F8BC01BCF86C1269
:10546000884207D9BCF88C02002804BFD8F8B000E5
:105470000028E8D0286820F004002860BDE8F00388
:105480007047296040F2E73101EB0221814298BF69
:10549000ACF800413FF675AFBDE8F00370477048C7
:1054A0000188C1F30E010180012080F313880420DC
:1054B000FCF7C4FE6B4945F2AA50A1F8FE03A1F522
:1054C0008065B5F8D80000273B2828BFA5F8D8701C
:1054D00004D2B5F8D800401CA5F8D800624E308838
:1054E000584CA4F86C0300BF00BF3088A4F87C03BC
:1054F000FDF7EEFBFDF787FCB4F8D0025B49401CDA
:10550000A4F8D002B4F8FA02401CA4F8FA02002071
:10551000794405EB40030A5CA3F8E823401C082803
:10552000F7DB94F8BA001A2804BF0020504907D1CD
:1055300005EB40030A5CA3F8C421401C0E28F7DBEE
:105540004C48007810F0040F08D06320A5F8B00193
:10555000A5F8B201A5F8B401A5F8B6012888401C49
:105560002880A4F8C272002035F81010B4F8C222C6
:105570001144A4F8C212401CB0F5FF7FF4DDB4F86A
:10558000C21225F810103088A4F86C0300BF00BFC9
:105590003088A4F87C03FDF742FBFDF7F2FB3648A8
:1055A0000168364A01F4E06111430160BFF3408FA6
:1055B000FEE72D4800882349A1F8F400B1F8F40073
:1055C000B1F8F220801AA1F8F600B1F8F400A1F8C1
:1055D000F200B1F8F600B1F8F020904284BFB1F8C3
:1055E000F600A1F8F000164A107810F0020F08BF7C
:1055F00070472DE9F05F20F002001070B1F8EC0068
:105600000024B0F57A7F09D3B1F8F000C008A1F802
:10561000EE00A1F8F040A1F8EC4004E0B1F8EC0095
:10562000401CA1F8EC00B1F88A02B0F57A7F3CBFCB
:10563000401CA1F88A02487DCB7921E0300100208E
:105640001601002014000020942400201A010020DC
:10565000280100200C0C014014040020240100202B
:10566000442C01409428002024040040DE840000E3
:10567000A82C00202E0100200CED00E00400FA050B
:105680000122DFF804A44FF00208984201F02581BE
:10569000A1F88842FD484B7DC05CC872FC484B7D38
:1056A000C05C0873FB484B7DC05C4873FA484B7D77
:1056B000C05C8873C87A172881F00781DFE810F092
:1056C000CB021700430068008900CA00CB0210011A
:1056D0001B01B601C9017F02A702FC0220035A0385
:1056E00018046304E7045707470847095709087B6C
:1056F000012806D0087B022807D0087B032809D0A0
:1057000012E0E64843885B1C02E0E44843885B1EE5
:10571000438009E0487B8B7B00EB0320DF4BC0F329
:105720008D00A1F82A019880DC484388B3F5857F75
:1057300084BF4FF4857343804388F62B3CBFF62328
:10574000438000F0D4B9087B012806D0087B0228EA
:1057500009D0087B03280ED017E0D048038991F8C0
:105760000DC0634405E0CD48038991F80EC0A3EB5A
:105770000C03038109E0487B8B7B00EB0320C74BC4
:10578000C0F38D00A1F82A011881042000F0EFBABF
:10579000087B01280FD0087B022813D0087B032840
:1057A000F3D1487B8B7B00EB0323BC488381838947
:1057B0009B088381E9E7B948838991F80DC0634468
:1057C0008381E2E7B548838991F80EC0A3EB0C030F
:1057D000EFE7087B01280FD0087B022808BF81F87B
:1057E000A34001F07280087B6F2804BFB1F88C02DF
:1057F00000280ED001F069B8B1F88C02002841F001
:105800006480A748007810F0100F18BF8A7601F066
:105810005CB8A448D0F8B000002804BF887B5528A5
:1058200041F05380487BAA2804D0487BBB280AD08B
:1058300001F04BB89C4B187840F06000187081F86C
:10584000242001F042B8984B187820F060001870BE
:1058500001F03BB8087B012804BF487B5F2841F07A
:105860003480887B5F2804BF91F88000022841F0D3
:105870002C80B1F88A02B0F52F7F81F0268081F864
:1058800080404FF47A70A1F88A02B1F88C020028A7
:1058900041F01B808248007810F0100F01F0158055
:1058A0007E48B0F8B801002808BF81F818800DD0F4
:1058B000087E58B991F8BA001A281EBFB1F86E03D5
:1058C000A0F57C53B3F1FF0340F0FF8741F6B12010
:1058D000A1F8D00241F27D50A1F8FA02FFF7DFFDF6
:1058E000887BA1F8980391F88E00002808BF81F802
:1058F0008E2000F0EABF087B012853D0087B642883
:10590000C0F0E387087B682880F0DF876448007870
:1059100010F0010F00F0D987087B4000C838C0B2F2
:1059200081F8DC004B7B202B02D34B7B7E2B01D9F3
:1059300020234B7391F80DC05C4B03F800C04D7BE6
:10594000A3F5006C0CEB4006A6F890518D7B202D42
:1059500002D38D7B7E2D01D920258D73401CC0B2D2
:1059600081F8DC008D7B1D548D7B0CEB4000A0F892
:10597000905181F8A92013200872DFF828C14C4803
:10598000CCF898000020DCF898601D5C7543AD08E9
:10599000CCF89850401C102813DA082818BF0928A2
:1059A000F8D0F0E7487B0528C0F08F87487B1428A3
:1059B00080F08B874B7B39480382008AA1F8020272
:1059C00095E09AF800503B48DCF898603A4F06FBA7
:1059D00005059AF80160AD0805FB06059AF8026016
:1059E000AD0805FB06059AF80360AD0805FB060047
:1059F0008508280AA7FB0096F6086FF00C0906FB3D
:105A000009F600EB46004130CCF8DC501872280C47
:105A1000CCF89800A7FB005C4FEADC0C0CFB09FCFF
:105A200000EB4C004130587200F04FBF487B6428B7
:105A300040F04B87087B1C2880F04787087B431E7B
:105A40001648A0F85C30B0F85C0081F85B0000F00C
:105A500022BA087B082880F03887DFE800F0FC04D1
:105A60002F394A54708CB1F8E602B0F5957F9CBF8F
:105A7000B1F8E602401C01D8A1F8E602B1F8E6024E
:105A8000064BD88033E00000AC060020EC07002075
:105A9000FC0700200C0800201C0800209424002093
:105AA000260100201404002028010020942C00204E
:105AB000D1FF323073E7F5054FECC44EB1F8E60282
:105AC000B0F5807F84BFB1F8E602401ED6D9D3E797
:105AD000B1F8E802B0F5957F9CBFB1F8E802401C30
:105AE00001D8A1F8E802B1F8E802F84B5881032088
:105AF0003DE1B1F8E802B0F5807F84BFB1F8E8027B
:105B0000401EF0D9EDE7487B8B7B00EB0320C0F310
:105B10008D00A1F82A01B0F5807F38BF4FF4807066
:105B200005D3B0F5967F28BF40F22B1001D3A1F822
:105B30002A0180B2A1F8E602E44BD880D7E7487B7F
:105B40008B7B00EB0320C0F38D00A1F82A01B0F598
:105B5000807F38BF4FF4807005D3B0F5967F28BFA3
:105B600040F22B1001D3A1F82A0180B2A1F8E8027B
:105B7000D64B5881BBE7887B552810D0887BFF28FF
:105B800018D0487BFF3000EB80004300CF480383F0
:105B9000CE48008BCE4BC3F8E80100F0BDBC487B7B
:105BA0004FF6FF73401E00EB800003EA4000C74B36
:105BB0001883EDE7C54B40F6F6101883E8E7087B3D
:105BC000012804D0087B02281AD000F07EBE487B52
:105BD000002800F07A86487B082800F276864B7B06
:105BE000BA48A0F80431B0F8040181F86300B9485C
:105BF000784491F86330C05CA1F86A0200F08CBC74
:105C00004B7BB248C381487B487700F085BC087B5A
:105C1000002800F05A86087B122800F25686487B3E
:105C2000AD4B91F80CC0634403F8010C487B00288D
:105C300000F04B86487B642800F2478606200872F5
:105C40004B7BA24891F80CC000EB4C00A0F8183137
:105C5000487BA24B00E091E191F80CC023F81C00B6
:105C6000087B33F81000B1F83EC20D7B00FB0CF04E
:105C70008009A3F1280C2CF81500087B0CEB4000E0
:105C800005880E7B33F81660B1F83E727E4305EB53
:105C9000E6150580087B0CEB400005880E7B33F889
:105CA0001630B1F83E62734305EB23230380087B73
:105CB000122840F00A865EE1087B002800F0058685
:105CC000087B082800F20186087B431E7F48A0F865
:105CD000BA30B0F8BAC0824D6B786CF34103B0F8BB
:105CE000BAC04FEA5C0C6CF300036B70B0F8BA00FA
:105CF0004FEA900C281D03786CF3000303706FE0EB
:105D0000487B0528C0F0E185487B802800F2DD85CE
:105D1000087B012807D002280ED0032815D00428BC
:105D20001CD000F0BFBA487B81F8AF00487B674BBE
:105D3000A3F8620100F0B6BA487B81F8B000487B56
:105D4000624BA3F8640100F0ADBA487B81F8B10062
:105D50004B7B5E48A0F8663100F0A4BA487B81F81E
:105D6000B200487B594BA3F8680100F09BBA087257
:105D700000F0ABBD087B001F0C2880F0A685DFE893
:105D800000F00616263143FD53FDFDFDFD96487BD0
:105D9000002800F09A85487B052800F29685487B0C
:105DA000431E4A480384008C81F8B5008CE0487B90
:105DB000002800F08A85487B052800F28685487B0C
:105DC000431E42484384408C81F8B6007CE0487B07
:105DD000552840F07A854348437843F010034370D8
:105DE0000F20C4E7487B002800F06F85487B11280E
:105DF00000F26B85487B431E3448A0F80631B0F8AA
:105E0000060181F86D0046E0487B0228C0F05D8500
:105E1000487B802800F25985487B81F8C000487B88
:105E20002A4B588700F051BD487B002800F04D8573
:105E3000487B522800F24985487B244B401EC0B263
:105E400081F8C700A3F80C013C2826D33C3881F820
:105E5000C700202081F8C80091F8C700162805D394
:105E6000162081F8C700802081F8C8001E4B7B44B3
:105E700091F8C7001B5C4FEAC31C154BC3F804C262
:105E8000DFF868C0FC441CF800C091F8C8000CFBA7
:105E900000F0C3F80002072069E71E2823BF1E3860
:105EA00081F8C7004020802081F8C800D4E7487BF3
:105EB0001428C0F00A85487BFA2800F20685487B42
:105EC000024B1887487B08750D2050E7942400206A
:105ED000140400202C8E0000AC080020F0060020E6
:105EE0002A01002028010020897B00008A7B000015
:105EF000087B002800F0E984087B122800F2E58482
:105F0000487B062340B20B72FB4B91F80CC023F880
:105F10001C00087B33F810C0F84D087B05EB4000EF
:105F2000A0F8E0C1087B33F910004FF4961C00FB89
:105F30000CF00D7B0014A3F1280C2CF81500087B45
:105F40000E7B0CEB4000058833F916604FF4966722
:105F50007E4305EBE6150580087B0E7B0CEB4000CD
:105F6000058833F916307B4305EB23230380087B38
:105F7000122840F0AA84BCF8240000E006E1ACF846
:105F8000260000F0A2BC087B082880F09E84DFE891
:105F900000F0FD041524333F606E487B00281CBFD1
:105FA000487B062880F09184487B401E81F8680079
:105FB00091F86800D14B98840E20D8E64B7B887B03
:105FC00003EB0020401EC0F30D00A1F83802B1F829
:105FD0003802CA4BA3F8C800EEE7487B8B7B00EB86
:105FE0000320401EC0F30D00A1F80C03B1F80C0310
:105FF000C24BA3F8CA0067E7487B8B7B00EB032307
:10600000BE48A0F8DA30B0F8DA00A1F8040342E79D
:10601000487B8B7B00EB0323B848A0F8DC30B0F85A
:10602000DC3040F2011C3CEA030303D0B44B1B8874
:10603000A0F8DC30B0F8DC30B14803800078C0F361
:10604000420381F83930C0F3421081F83A00092048
:106050008DE6487B8B7B00EB0320C0F30D00A1F89D
:106060003A02B1F83A02A54BA3F8CC00A4E7487B6A
:106070008B7B00EB0323A148C382C08AA14B93F81A
:1060800000C060F3C71C83F800C000F01EBC087B92
:10609000232880F01A84DFE800F079122432465B6E
:1060A000797A797979799DA9B3BDD1DAF2F0EFEEF9
:1060B0007979EDECEBEAE9E8E7E679E5E400487B9D
:1060C000202800F20284487B102803D2487B042851
:1060D00040F0FB83487B894B81F8BC00188500F0B9
:1060E000F4BB487B8B7B00EB0320401EC0F30D000C
:1060F000A1F83602B1F83602804B588526E0487B7D
:106100008B7B47F2D33C00EB032080B2A0F5AF734A
:10611000A1F8A403634580F0D883784B9885988DC7
:10612000A1F8400312E0487B8B7B00EB0320401E6C
:1061300080B2A0F58073A1F8A403B3F5127F00F23A
:10614000C4836E4BD885D88DA1F8820309200EE652
:10615000487B8B7B00EB0320401E80B2A0F5FA73D6
:10616000A1F8A403B3F57A6F00F2AF83634B1886EE
:10617000B1F88233584300EB400303EBC00041F613
:10618000501390FBF3F0A1F83402DFE701E2B1F81D
:106190008C02002840F099835B48D0F8B0000028BA
:1061A00040F09383487B012803D0487B022808D025
:1061B0000EE05448037823F0020303704F488486AE
:1061C00006E05048037843F0020303704B48828690
:1061D0000820CCE54B7B887B03EB0020431E47481F
:1061E000C387C08FA1F85C020B20C0E5487B431E2B
:1061F0004248A0F84030B0F8400081F82500DBE6C6
:10620000487B431E3D48A0F84230B0F8420081F878
:106210002400D1E6487B394B401EC0B281F8BD0056
:10622000A3F84400C0F38103CB76022B88BF81F82A
:106230001B8000F0030081F8BD00BDE64B7B2F48BA
:10624000A0F84630B0F8460081F82600B4E6487B56
:106250008B7B00EB0320294BA1F8D8015883122037
:1062600085E57AE16FE159E13CE11EE107E1EFE00C
:1062700089E073E05EE04BE028E015E0FFE7487B53
:106280008B7B00EB032080B2A0F58063A1F8DA01DC
:10629000B3F5007F9CBF194B988303D91748808BB7
:1062A000A1F8DA01122062E5487B252800F20D836F
:1062B000487B012840F20983487B431E0F48A0F821
:1062C0004830B0F84800A1F8000231E0487B572878
:1062D00084BF57204873487B431E0848A0F84E30BF
:1062E000B0F84E00A1F84002B1F8403207485843D8
:1062F000000CA1F86C021BE0400700209424002051
:106300003201002028010020140400200060290030
:10631000487B431EFE48A0F85030B0F85000A1F86A
:106320004202B1F84232FB485843000CA1F86E0219
:106330000A201CE5487BA02800F2C782487B02287F
:10634000C0F0C3824B7BF248A0F8FA30B0F8FA00F4
:10635000C0EB80308000A1F8440212E0487BC828DE
:1063600000F2B382487B0428C0F0AF824B7BE84840
:10637000A0F8FC30B0F8FC00C0EB80308000A1F841
:1063800048020B20F3E4887B00F03F008873487BD1
:106390008B7B00EB0320431EDD48A0F85A30B0F899
:1063A0005A30B0F84CC0634584BFB0F84C30A0F808
:1063B0005A30B0F85A00A1F83E020A200872D64BB3
:1063C000002003F1500903F1280703F1780B37F897
:1063D00010C0B1F83E520CFB05FC4FEA9C1C23F8A0
:1063E00010C033F810C037F81050B1F83E62754352
:1063F0000CEBE51C23F810C033F810C037F8105030
:10640000B1F83E6275430CEB252C23F810C03BF924
:1064100010C04FF496150CFB05FC3BF910504FEAE9
:106420002C4C4FF4966675430CEBE51C3BF9105071
:1064300075430CEB252C29F810C0401C1328C6DB33
:10644000988CD884B9F82400A9F8260000F03DBA49
:10645000887B00F03F008873487B8B7B00EB032038
:10646000431EAB484386438EB0F84AC0634584BFA1
:10647000B0F84A304386408EA1F83C0258E7487B8A
:10648000042840F22282487BE02800F21E82487BEA
:106490009F4BA3F85E00487BA1F8F801C010A1F85B
:1064A000FA0108BFA1F8FA2150E6487B002800F065
:1064B0000C82487B102800F208824B7B9448A0F89D
:1064C0006030B0F860004FF6FF7303EA8000A1F877
:1064D0001802B1F8180200EB800003EA4000A1F8AE
:1064E0001A0219E0487B002853D0487B102850D866
:1064F0004B7B8748A0F86230B0F862004FF6FF731C
:1065000003EA8000A1F81C02B1F81C0200EB800035
:1065100003EA4000A1F81E020C2028E44B7B7C48D3
:10652000A0F86430B0F864004FF6FF7303EA80000F
:10653000A1F82002B1F8200200EB800003EA40003D
:10654000A1F82202E8E7487BC02822D8487B704B9C
:1065500081F8C200A3F85600F8E54B7B887B03EB7B
:1065600000206B4BA1F87E03A3F85400EEE5087BF6
:10657000C01F072872D2DFE800F0048686142F5F60
:106580007200487B012805D0487B092808BF81F8A4
:1065900079209AE16148037843F0010303700A7699
:1065A00093E15E48037843F002030370087E50B91C
:1065B00091F8BA001A281EBFB1F86E03A0F57C53FB
:1065C000B3F1FF0349D14B7B554803708B7B43707C
:1065D0000A2081F8BB0078E15048037843F00203B9
:1065E0000370087E50B991F8BA001A281EBFB1F89E
:1065F0006E03A0F57C53B3F1FF032ED1487B484BCB
:106600009870887BD87091F8BB000A2818BF81F871
:10661000BB4022D10B2081F8BB003D4893F800C05D
:10662000A0F8B8C15B78A0F8BA314B7BA0F8BC31B8
:106630008B7BA0F8BE3148E1087E02280DD2384895
:1066400091F80DC00378634505D140788B7B984263
:1066500008BFCA7501D0CC750C7636E113E0087E10
:10666000022873D2C87D012870D12D4891F80DC041
:106670008378634505D1C0788B7B984208BF0A7642
:1066800064D00C7621E1087B142821D3087B1B28D9
:106690001ED2087B142809D0087B91F8BA305B1C05
:1066A00098420CBF087B81F8BA4001D181F8BA004A
:1066B0004B7B1C4891F80CC000EB4C0C0CF8283CB0
:1066C0008B7B91F80CC000EB4C0000F8273CFCE001
:1066D000087B1E283AD3087B252837D2087B6FF029
:1066E0003B0303EB4000DFF83CC0C0B281F8DC00A4
:1066F0001CF80030002B1CBF4D7BAB4206D1B1F81B
:106700006E5302FA00F32B43A1F86E33401C0BE0EA
:106710009424002000602900C806002026010020E3
:1067200028040020A82C0020C0B281F8DC001CF84E
:106730000030002B1CBF91F80EC0634506D1B1F8A4
:106740006E3302FA00F01843A1F86E03BDE0087B37
:10675000F84BA3F8CE00487BA3F8D000887BA3F8C1
:10676000D20003F58060B0F8FEC3ACF5AA45DD3D6C
:106770001CBFB0F8FE03002824D1087BA3F86E01EB
:10678000487BA3F87001887BA3F87201DFF8A8C3E7
:10679000002003EB40061CF80050A6F89051401C66
:1067A0000928F6DB002003EB400CACF8B841401C94
:1067B0000428F8DB002003EB400CACF8C441401C7B
:1067C0000E28F8DB91F8A900E8B3087B4FF47A7C37
:1067D000B0FBFCF50CFB150000EBC00C0CEB401003
:1067E000000B3030A3F8A201087BDFF850C3ACFBEC
:1067F00000656D096FF01806754300EB8500D04DFC
:1068000085FB00608610A6EBE0703030A3F8A40191
:10681000087BCC4EA6FB0097FF087F4207EB87075B
:1068200000EB47003030A3F8A601487BACFB009793
:106830007F096FF0180907FB09F700EB870085FB5C
:106840000070871000E032E0A7EBE0703030A3F872
:10685000A801487BA6FB0097FF087F4207EB87074C
:1068600000EB47003030A3F8AA01887BACFB007C2A
:106870004FEA5C1C6FF018070CFB07FC00EB8C0068
:1068800085FB00C04FEAA00CACEBE0703030A3F801
:10689000AC01887BA6FB005C4FEADC0CCCF1000C61
:1068A0000CEB8C0C00EB4C003030A3F8AE0191F8EF
:1068B0008000012809D1B1F88A02B0F52F7F38BFD6
:1068C00081F8808001D2A1F88A42487D0F2808BF54
:1068D0004C7502D0487D401C4875B1F82601B1F8CE
:1068E000243198423CBF8C77BDE8F09F887F0A280E
:1068F0003EBF401C8877BDE8F09F887E012844D0C9
:10690000B1F888021026904DB0F5967F4ED2401C0B
:10691000A1F8880291F879000F46002808BFBDE869
:10692000F09FAA202870387A6870387A182880F08A
:10693000F484DFE800F06FC4FEFDFCFBFAF9F8F721
:10694000F6F5F4F3F2F1F0EFEEEDECEBEAE9087BAB
:10695000431E7848A0F8D4304B7B5B1EA0F8D6309D
:106960008B7B5B1EA0F8D83081F88020ABE70B7BD7
:10697000764803704B7B43700B7B6E48A0F8C230A7
:106980004B7BA0F8C430FFF717BB71480188C1F3F7
:106990000E01018082F313886E4801686E4A01F48B
:1069A000E06111430160BFF3408FFEE791F878008A
:1069B00080B1012818BFBDE8F09FB1F874026428C7
:1069C00039BF401CA1F87402A1F8744281F87840E4
:1069D000BDE8F09F91F87900002813BF81F8788016
:1069E00000205E4BBDE8F09F13F800C005F800C022
:1069F0002F181AF800C087F808C0401C0828F3DBDD
:106A0000A1F82461A1F8264181F87820A1F8744208
:106A1000BDE8F09FB7F84A028008A87097F87700A1
:106A2000E87097F8520097F86E1080F0020000F0BE
:106A3000030001EB800097F8AB1097F89B3001EB57
:106A4000430100EB0110287197F82500397E00EB17
:106A50008101B7F86E03A0F57C53FF3B0CBF01200A
:106A6000002001EB00103E49097801F0010100EB24
:106A700041106871B7F88C02000AA871B7F88C024F
:106A8000E871384800882872000A6872B7F8E40292
:106A9000A7F81C03B7F81C03000AA872B7F81C0378
:106AA000E872B7F8E202A7F81C03B7F81C03000A63
:106AB0002873B7F81C0368733A7200F014BC87F8A7
:106AC0000880B7F85203000AA870B7F85203E870BC
:106AD000B7F8AC02A7F81C03B7F81C03000A28712A
